:020000022000DC
:1060000000000120756302005D6302005F6302000F
:106010006163020063630200656302000000000028
:1060200000000000000000000000000067630200A4
:1060300069630200000000006B6302006D630200F0
:10604000658802006F630200218C02006F6302000A
:106050006F6302006F630200A98A02006F6302008F
:106060006F6302006F6302006F6302006F630200E0
:106070006F6302006F6302006F6302006F630200D0
:106080006F630200817002006F6302006F630200A1
:106090001D7102006F63020041A102006F630200E4
:1060A0006F6302006F6302006F6302006F630200A0
:1060B0006F6302006F630200000000000000000038
:1060C0006F6302006F6302006F6302006F63020080
:1060D0006F6302006F6302006F6302000000000044
:1060E00000000000000000000000000000000000B0
:1060F00000000000000000000000000000000000A0
:10610000000000000000000000000000000000008F
:10611000000000000000000000000000000000007F
:10612000000000000000000000000000000000006F
:10613000000000000000000000000000000000005F
:10614000000000000000000000000000000000004F
:10615000000000000000000000000000000000003F
:10616000000000000000000000000000000000002F
:10617000000000000000000000000000000000001F
:10618000000000000000000000000000000000000F
:1061900000000000000000000000000000000000FF
:1061A00000000000000000000000000000000000EF
:1061B00000000000000000000000000000000000DF
:1061C00000000000000000000000000000000000CF
:1061D00000000000000000000000000000000000BF
:1061E00000000000000000000000000000000000AF
:1061F000000000000000000000000000000000009F
:10620000354936480A1A02D0072291438D4634494F
:1062100034480A1A06D00722914381F309880222E2
:1062200082F3148830483149314A00F044F831484B
:106230003149324A00F03FF831483249324A00F0E1
:106240003AF832483249334A00F035F83248334997
:10625000334A00F030F833483349344A00F02BF821
:1062600033483449344A00F026F83448344900228F
:1062700000F02CF833483449002200F027F8334866
:106280003349091A082902DB002202604160314AC1
:1062900090471F481F49884205D00268043003B464
:1062A000904703BCF7E700208646EC46002000211B
:1062B000294A9047FEE7884207D0521A05D0037852
:1062C00001300B700131013AF9D17047884202D098
:1062D00002700130FAE770470000012000E0002062
:1062E0000000012000000120C8B70200B8220020F1
:1062F00018230020D4630200D4630200D0A502005A
:10630000C8B70200B8220020B8220020B4A60200BC
:10631000B4A60200B4A60200B4A60200B4A602000D
:10632000B4A60200B4A60200B4A60200C6B70200DA
:1063300028B802001823002018230020182300206A
:10634000BC2E0020BC2E0020BC2E0020BC2E002025
:10635000BC4E00209D63020039830200FEE7FEE789
:10636000FEE7FEE7FEE7FEE7FEE7FEE7FEE7FEE705
:10637000704700BF1048804710484FF0070188431E
:1063800085460F4880470F48016841F4700101605D
:10639000BFF34F8FBFF36F8FFFF732BF0A480B4930
:1063A0000B4A884207D0521A05D0037801300B708F
:1063B0000131013AF9D170477163020000000120F8
:1063C000717D020088ED00E0B4A60200B822002032
:0463D000B8220020CF
:1063D4007047000007B5044B0093044A402300F0C3
:1063E40032F803B05DF804FBF563020019230020C2
:1063F4002DE9F84388461446B2B10F4B0F4E0325DE
:10640400002743F00109224608EB0701002002F0AF
:10641400EFFD0744241A48B933782BB14FF47A407E
:10642400C847013D02D13570BDE8F88301233370BC
:10643400002CE8D1F8E700BFC0A602001823002012
:10644400704702F005BEF0B595B01D4616460846E5
:106454000C4601F0ADFB1A9B0D93CDE908650025B0
:106464002B46082205A920460A958DF82C500C9538
:1064740001F0BAFB079B0293069B03939DF814302B
:106484008DF8115003F00302012A1DD1BDF8142028
:10649400059DC3F3C203C2F383168DF81030B20016
:1064A40008230EA9204601F09FFBC5F3952508ABF0
:1064B4000093324602AB0EA9284600F067FB204643
:1064C40001F07AFB15B0F0BD022AF8D1BDF81650E0
:1064D400C3F3C203C5F389158DF810300827082DBE
:1064E4002E4628BF08263B4632460EA9204601F018
:1064F4007BFBAD1B08AB02AA31460EA8374400F063
:10650400A9FB002DEBD1DAE708B5FFF79AFF0448A1
:10651400042100F0A5FA034B01225A7108BD00BF03
:10652400A4A60200B8220020037813F0040216D0B7
:1065340003F00303012B03D0022B09D00120704781
:106544000A6800880232C0F3831002440A60F5E747
:106554000B684288023303EB92130B60EEE710469C
:10656400704700002DE9F04FDFF830A187B00F46E7
:1065740000230446861C0DF1070015468DF80730EC
:1065840000F0C0FFDAF800103960DAE90132134490
:1065940001335B1A0AF21C470AF583690AF21448AC
:1065A400B3421CD30020002D73D004F00F039B01D1
:1065B40043F0050363F30F00DAF80020DAF808303B
:1065C4001340033332444AF823009DF80700CAF805
:1065D400002000F0BBFF012007B0BDE8F08F0121CF
:1065E400384601F014F8484601F029F8404601F015
:1065F40026F8DAF80400DAF808B0029000EA0B0092
:1066040003300AEB800002A9FFF78EFF029B50BB08
:106614000BEA03020AEB820203F1020CD268039232
:10662400013303EA0B0B0AEB8B0B02F00302012A82
:10663400DBF80C10CDF808C023D0022A16D083460C
:10664400404600F0FFFF10B1029BCAF804305946DF
:10665400384600F0DCFFDAE901231344DAF80020BD
:1066640001339B1A9CE70BEA0300C9E7BDF80E301F
:10667400C3F3891303334FEA114B0CEB93030293D7
:10668400DEE7BDF80C30C3F383134FEA114B6344C8
:10669400F5E7A40544F006008EE700BF2C24002093
:1066A4000B4B0C48FF2210B59A600022C3F8182443
:1066B400C3E90022C3F81424012283F8202401F042
:1066C40030FA044610B9044801F0D8FA204610BD47
:1066D4002C24002028A60200FCA6020030B50A4C97
:1066E40071B10A4A0A49121BD20800239A4201D105
:1066F400002030BD31F82350854202D00133F5E744
:10670400034654F83300F4E73CA60200A4A60200B2
:10671400B8220020094B013903EBC000032909D832
:10672400DFE801F00A02040604207047007970478C
:106734004079704700207047022070473CA6020051
:10674400034BD3E90030C31A58425841704700BF85
:106754002C2400202DE9F04387B0FFF7F1FF064613
:10676400002840F0FE80804CC4F81804BFF34F8F1B
:106774006368A56802932B40033304EB830002A9EA
:10678400FFF7D2FE029B18B1D4F81824002A62D075
:1067940005EA0302991C013304EB82022B4004EB4B
:1067A4008303D268DB68049302F00303022B039291
:1067B400029163D1BDF80E306C48C3F38917502F92
:1067C400B84628BF4FF0500808F1080168F38F134A
:1067D400C1F30901ADF80E3001F0BBF906460028FB
:1067E40000F0AA8001F0E4F90023082203A930464E
:1067F40001F0F0F9029925EA01020132B8EB820FA7
:106804004FEA820333D95FFA88F863B32940DDB2D3
:10681400A8EB050803315FFA88F9A846544D04EB48
:10682400810108234246304601F0D4F93DB108F114
:106834000803DBB24A462946304601F0CBF9029BF5
:10684400033703EB97070297D4F81834002B4BD186
:10685400D4F810545BE0226893428CD362603046D3
:1068640007B0BDE8F08342491D469946D9E729405F
:1068740003310823424604EB8101DDE7012B5BD1A0
:10688400BDF80C303948C3F38311062928BF06210B
:1068940061F38913023101F00F018900ADF80C3066
:1068A40001F057F90646002846D001F081F900238B
:1068B400082203A9304601F08DF90027BDF80C2009
:1068C400C2F38312BB00974203F10803BCD20299BE
:1068D4004A1C29400331029204EB81010422304610
:1068E40001F078F90137E9E7304601F065F9FFF77F
:1068F40027FF80F00100C6B2B1E7EB685B7923B1F2
:106904002B6831461B6828469847EB681D68002DA4
:10691400F3D1304601F050F90DF107008DF807501E
:1069240000F0F0FDD4F818340BB9029B63609DF8B5
:10693400070000F00BFEDAE7D4F8104454B90D4B0D
:106944000D480E49C01AC008000440F0020000F0CF
:1069540063F8CCE7236820469B689847E3681C6883
:10696400ECE700267BE700BF2C24002028A60200C9
:10697400382400203CA6020064A60200E4A602001B
:106984002DE9F74F224E04460F46924601A90122F3
:106994001846D6F808909B46FFF7E4FD20B3019D06
:1069A4004FF00008AA1CD84508EB020126D119486B
:1069B400002100F0FDFD80F31000000440EA1440C3
:1069C400E4006B1C04F0380403EA090305EA090532
:1069D40044F0010406EB8303033544EA881444EAD3
:1069E4008724D86046F8254096F820341BB1FFF779
:1069F400B1FE0028FBD103B0BDE8F08F09EA010124
:106A040006EB81015AF82830CB6008F10108CAE787
:106A14002C2400204828002000231A46FFF7B0BF8A
:106A240007B50123019201AAFFF7AAFF03B05DF89D
:106A340004FB07B5CDE9002302236A46FFF7A0FF54
:106A440003B05DF804FB1FB5CDE90123069B039356
:106A540001AA0323FFF794FF05B05DF804FB0000CF
:106A640030B50F4CD4F8102403460020114631B938
:106A7400D96808714AB9C4F810340A6030BDC968CD
:106A84000D79854206D00968F1E7D26814680C6074
:106A94001360F3E701300A28E8D14FF0FF30EDE747
:106AA4002C24002038B5084B0125D3F8104483F872
:106AB400205404B938BDE3685D71236820465B68DF
:106AC4009847E3681C68F4E72C24002030B5C38899
:106AD40085B004460D4633B1144A00921449154A50
:106AE400284600F012FE217A05291DD0637A4BB1A5
:106AF400A088FFF70FFE104B104953F820202846BA
:106B040000F003FE227A0E4BA08853F82220039251
:106B14000021FFF7E3FD039A0A490346284605B01E
:106B2400BDE8304000F0F1BD05B030BD28A702003B
:106B340010A7020008A7020094A702002DA70200D4
:106B4400B8A7020030A7020007B503460846197A21
:106B5400052911D05B7A2BB1094A0A49019000F04A
:106B6400D4FD01980849019000F0CFFD019803B0CD
:106B74005DF804EB00F0BEBD002AF8D0F2E700BFD8
:106B840028A702002DA7020025A702002DE9F04343
:106B940085B01F460C9D002395F80C902B73064678
:106BA4000C46904629463846FFF790FFB8F1060F89
:106BB40009D8DFE808F00412181F283340003146D2
:106BC400284600F0A2FD002229463846FFF7BCFF04
:106BD40085F80C9005B0BDE8F0832268314628465C
:106BE40000F093FDEFE7D4E900233146284600F096
:106BF4008CFDE8E7A36800933146D4E900232846D6
:106C040000F083FDDFE7E3680193A3680093314656
:106C1400D4E90023284600F078FDD4E723690293E1
:106C2400E3680193A36800933146D4E9002328461E
:106C340000F06BFDC7E76369039323690293E3687C
:106C44000193A36800933146D4E90023284600F059
:106C54005CFDB8E708292DE9F74F80460E46174634
:106C64001C463DD800251B7B257321461046019305
:106C7400FFF72CFFDFF88CA0DFF88CB0AE4232D9DE
:106C840018F805205946204600F03FFD0135082D2F
:106C9400F4D11B49DFF874A0DFF874B0204600F08B
:106CA40034FD4FF000094E4524D918F809507E2DC3
:106CB4001ED8284603F0D4FB002814BF2A462E22EF
:106CC4005946204600F021FD09F10109B9F1080FE8
:106CD400E9D1012221463846FFF736FF019B237391
:106CE40003B0BDE8F08F5146204600F00EFDCDE71D
:106CF4002E22E5E75146204600F007FDE4E700BFF9
:106D040044A7020040A702003AA7020042A70200DB
:106D140046A702002DE9F84F2F4F304E4FF00008E0
:106D24002F4B1B785FFA88F5AB4201D8BDE8F88F8A
:106D3400D7F8009019F835000124A0F12002C0F121
:106D4400200304FA02F224FA03F31343D6E90012EF
:106D540004FA00FC01EA0C0B02EA030E5BEA0E0ED5
:106D640009EBC50A35D021EA0C0122EA0303C6E97E
:106D7400001301F08DFE024619F83500194DA0F1FB
:106D84002003C0F1200124FA01F104FA03F30B43B8
:106D9400D5E900C1C0F120050B40A0F1200122FA81
:106DA40005F5844002FA01F1294304EA0C0402FACD
:106DB40000F58B4208BFAC420BD1DAF8043043B182
:106DC4009AF801104C1E614261418D1A6942694171
:106DD400984708F10108A3E720290020182900207A
:106DE400E828002010290020F8B507461E4800F0C6
:106DF40079FBB8BB01251D4EA7F12004C7F1200380
:106E040025FA03F305FA04F41C43D6E90023BD4034
:106E140002EA050003EA040101431DD1384601F0EA
:106E240037FE134BD3E9001288B129432243C3E947
:106E34000012D6E900232A432343C6E900230D4B5D
:106E4400094819680022BDE8F84000F003BB21EAB4
:106E5400050122EA0402EAE722EA050223EA04031E
:106E6400C6E90023F8BD00BFF0280020182900203F
:106E740010290020EC280020042A2DE9F3410546BE
:106E84000C4616463BD901F081FDE8B11D4B1E4965
:106E94001D601E4BDFF888801C701D4B00221E6095
:106EA4000023C1E900231B49C1E90023013CE4B2EA
:106EB40000260327FF2C0ED1174A1848002102B0E0
:106EC400BDE8F04100F0B4BA01F030FD0028DDD097
:106ED40002B0BDE8F08105EBC40315F834009B78DB
:106EE4008DF80660424601A98DF804708DF80530CE
:106EF40001F056FD013CE4B20028DBD0E8E70720AE
:106F0400E6E700BF2029002010290020E8280020FF
:106F1400EC28002018290020196D0200CCA70200DB
:106F2400ED6D02001FB50021039001AA44F2010097
:106F3400CDE9011100F004F805B05DF804FB000090
:106F440038B572B6FFF7AEFDFFF704FC0028FBD19D
:106F5400104B114C114D1249E41AE408240444F076
:106F64000100FFF759FDD5F8F030DB0700D500BE6E
:106F74000C4944F00200FFF74FFDBFF34F8FEA685E
:106F8400094B02F4E0621343EB60BFF34F8F00BF81
:106F9400FDE700BF3CA6020064A6020000ED00E08D
:106FA400D0A70200DCA702000400FA05094B5A78B6
:106FB40099780132D2B2914208BF002219789142E5
:106FC4001FBF02705878182202FB003014BF04302F
:106FD400002070472429002073B5054600240DF1D4
:106FE40007000E468DF8074000F08CFA0DF10600FC
:106FF400FFF7DCFF90B10670094B9DF80620456051
:107004005A709DF8070000F0A1FA24B9054B4FF41B
:107014008012C3F80021204602B070BD0424F0E7BA
:107024002429002000E100E0024B4FF43C6043F0CF
:1070340001031847F0A7020038B50C4B0C4C4FF471
:107044000032C3F8802001254FF48033C4F848335C
:10705400C4F808336560FFF7E7FF064BA56000241A
:107064001C60FFF7E1FF044B1C7038BD00E100E039
:1070740000100140402A0020312A0020F8B51F4B9F
:107084001F491B680025C1F84051C1F84451C1F89B
:107094004851C1F84C51C1F80051C1F804514BB3E7
:1070A400D1F8044517490968641A24F07F442F462F
:1070B4001A68A24209D8A41A15441A7CDE691AB1C6
:1070C400D3E905201F749047AEB90F4A0F4B1178CE
:1070D4001B788B4205D10133DBB2022B08BF00239E
:1070E400137012780A4B43F822500A4B4FF4801263
:1070F400C3F80021F8BD3346DAE700BF442A002074
:1071040000100140402A00203D2A00203C2A002093
:10711400342A002000E100E02DE9F04FA14AA24901
:1071240013780978A14D994285B03CD00133DBB284
:10713400022B08BF002313709D4912789D4B0F68E2
:1071440053F822003B1823F07F4300220B602B6886
:1071540016461446944613B942B12B6006E01968EA
:1071640081420ED902B12B60091A196001272B68DC
:10717400DFF848A201934FF00008BEB9DFF844B22B
:1071840060E0401A0C44D968D3F81CE0C3F800C08E
:1071940031B13A1922F07F42C3E90121DE611E4672
:1071A40073460122D7E700263746E0E73446F669FE
:1071B4007F4B60681B68DFF810C2A168C21A22F016
:1071C4007F42624500F2A6800A44226001222274B2
:1071D4002A680023C4E90133E361002A40F0A38054
:1071E4002C60CAE79BF802105A1CD2B291428BF869
:1071F400002004BF00228BF80020182202FB03B3F6
:107204002A6819799C68022975D003297FD001293D
:1072140018D1207CB0B9D3E90312A2605A69E260A4
:107224009A69654BA2611A78002A18BF0146616009
:10723400BEE78C4200F094808946C9690029F8D1E0
:10724400002323749BF800309BF801209A42C9D193
:107254002B68B8F1000F04D1019A9A4201D1002F92
:1072640043D0002B79D0D3F800A0544D504BD5F81F
:1072740004751C68DFF854813E1B98F8003026F032
:107284007F4603369BB94FF48033C5F84433C5F8C1
:1072940004334B4B4FF400324FF00109C3F8802103
:1072A4001A60C5F80090FFF7BFFE88F80090B24559
:1072B4002CBF5444A41924F07F44C5F84045D5F8A4
:1072C4000435DB1B23F07F43E41B033324F07F44AA
:1072D400A3420AD9D5F80435C5F84035FFF7A4FE12
:1072E400374B4FF40032C3F80021334B00221A709D
:1072F40005B0BDE8F08F114691469FE71174D2693D
:107304000123002AFAD1002B9CD02A609AE700239B
:107314001946F6E71B1A23F07F438B4234BFCB1A7E
:107324000023236052E721681368994213D85B1A3B
:107334001360E26154E7091AD8691A4638B1034662
:1073440018688842F7D3401A18601846134621601B
:10735400E061DC6111E71346F2E7FFF76DFEC4E775
:107364004C4511D1D3692B6073B9DFF844E0012097
:10737400CDE90212CAF80800CEF800300E4B18709E
:10738400FFF752FEDDE902120B68C969C9F81C1047
:1073940011B1086803440B602B68934218BF4FF087
:1073A40001084DE73C2A00203D2A0020442A002001
:1073B400402A0020342A0020302A002000100140F6
:1073C40000E100E024290020FEFF7F00312A002094
:1073D40008B5FFF731FE104B00200B2218809A707D
:1073E4000E4B18600E4B18700E4B18700E4B4FF46A
:1073F4008012C021C3F8802183F814131A6002F1AB
:107404008042A2F56F22C2F8080583F81113074BD6
:10741400D2F804251A6008BD24290020442A00203B
:107424003C2A00203D2A002000E100E0402A002000
:10743400074B9B784BB132B128B10368187C20B953
:1074440059745A617047072070470820704700BF7D
:10745400242900202DE9F743DFF8848098F80230CE
:1074640005460E461746ABB3A0B3042930D9436989
:1074740083B3437C0024012B0DF107000CBF894624
:10748400A1468DF8074000F03DF80DF10600FFF726
:107494008DFDD8B1012303700F4B4560D3F804353B
:1074A400C0E90497C0E902369DF8063088F8013037
:1074B4009DF8070000F04AF824B9084B4FF48012F5
:1074C400C3F80021204603B0BDE8F0830424EFE7AD
:1074D4000724F7E70824F5E70010014000E100E085
:1074E40024290020064A92783AB130B1426922B187
:1074F400002202740221FFF76FBD0820704700BF0D
:107504002429002070B5EFF3108672B60C4A9468F3
:1075140001239CB993600B4B0B4DD3F88010294089
:107524001160C3F88050D3F8841051604FF0FF32DB
:10753400C3F88420047006B962B670BD0370FAE71C
:10754400482A002000E100E0FC06FFBD084B9A68D1
:1075540010B55AB150B9EFF3108172B6054A1C68E0
:1075640014605C685460986001B962B610BD00BFD5
:10757400482A002000E100E001F01F024B0901212C
:10758400914000EB830000F01EB801F01F030122BC
:107594009A404B0900EB8300D14300F02CB84B090F
:1075A40001F01F0150F82300C84000F001007047AB
:1075B40010B5034653E8000F0A4643E8002494F04C
:1075C400000FF7D110BD10B5034653E8002F42EA6F
:1075D400010043E8000494F0000FF6D110BD10B58B
:1075E400034653E8000F00EA010243E8002494F044
:1075F400000FF6D110BD10B5034653E8002F02EA80
:10760400010043E8000494F0000FF6D110BD10B55A
:10761400034653E8002F02EB010043E8000494F012
:10762400000FF6D110BD10B5034653E8002FA2EBAE
:10763400010043E8000494F0000FF6D110BD0121CD
:10764400FFF7C1BF0021FFF7CABF10B590B1D0E961
:10765400012301689B1ADBB20A60013BDBB2FF2BFA
:10766400026802D10020107110BD11684C1C146016
:107674000B70F2E70E20F7E737B5054600240DF14D
:1076840007008DF80740FFF73DFF2A686B68116813
:1076940099420ED9481E106011F8013CEC68298A01
:1076A40001FB0344AB6811791B1ADBB2994238BF62
:1076B40013719DF80700FFF749FF204603B030BD62
:1076C40037B5054600230DF107000C468DF8073049
:1076D400FFF718FF2A681368591C1160E968641AD7
:1076E400298AB4FBF1F41C709DF80700FFF72EFF04
:1076F40003B030BD826810B504462AB143690168FD
:10770400006998470023A36010BD0EB403B5039924
:1077140021B104AB01AA019300F076F802B05DF840
:1077240004EB03B070470A2938B504460D4602D16C
:107734000D21FFF7F8FFA3682268591CA160D554F6
:10774400D4E901329A4204D32046BDE83840FFF719
:10775400D1BF38BD2DE9F84F9846DDE90A431546F7
:1077640082460F460A464FF00109AA420FD2C1458C
:1077740038BFC14613F0010B01D16CB900240126B6
:10778400B8F1010F1BD908F1FF386E43F8E709F18E
:107794000109B2FBF5F2E8E79B070ED5B8F1000F3B
:1077A4000CBF30262026A145E9D2013C3146504683
:1077B400FFF7B9FF002CF6D1E0E72026F3E7B7FB8B
:1077C400F6F39D42E1D9DFF83C80B7FBF6F350466F
:1077D40018F8031006FB1377FFF7A5FF3346AB42F7
:1077E400B6FBF5F6F1D2BBF1000F02D00CB1A14506
:1077F40001D3BDE8F88F20215046013CFFF793FFE9
:10780400F4E700BFF6A702002DE9F74F0546174637
:107814008846002900F03E8118F8011B49B92B7BEA
:10782400002B00F03781284603B0BDE8F04FFFF786
:1078340061BF252940F0B780002698F800302D2B31
:10784400424608F1010823D0302B24D02B2B25D01D
:1078540000242A2B02F1010123D13B681A1D1B6865
:107864003A601C440A4613782E2B26D101324FF07D
:10787400000A104610F8011BA1F1300CBCF1090FED
:107884001DD80A2303FB0A13A3F1300A0246F0E7CA
:1078940046F00106D1E746F00206CEE746F00406BC
:1078A400CBE711F8013CA3F130000928DBD80A2208
:1078B40002FB0434303C0A46CBE74FF0000A12F8CE
:1078C400011B01F0FB0068289046F8D0782909D8FC
:1078D4006F290CD8632962D022D8252963D058296E
:1078E40000F0888098F80030002B95D197E7703924
:1078F4000829F7D801A353F821F000BF737A0200D6
:10790400E9780200E9780200097A0200E9780200C5
:10791400E7790200E9780200E9780200F9790200C7
:10792400642901D06929DDD13A68D2F80090111D8B
:1079340089EAE9723960A2EBE9724FF0010B092A76
:1079440035DCD34538BFD3462CB1B9F1000F01DB88
:10795400720700D5013CB30702D5BAF1000F03D07A
:10796400F00701D44CBB0024B9F1000F2DDAC9F1A2
:1079740000092D212846FFF7D6FE06F00302022A4D
:1079840004D1BAF1000F01D11CBB0024CDE900469B
:1079940053460A2249462846FFF7DCFEA2E73B6825
:1079A4001A1D19783A602846FFF7BDFE9AE70A23A4
:1079B4000BF1010BB2FBF3F2C1E7A345D4D22021B2
:1079C4002846013CFFF7AFFECCE77107D5D52B2144
:1079D400D0E7A345DAD230212846013CFFF7A3FEC5
:1079E400D2E73968CDE900460A1D3A6053460A22B7
:1079F4000968D0E739680A1D3A60CDE90046534664
:107A04001022F5E73B681A1D3A6016F00106D3F818
:107A1400009024D1B9F1000F03D0484602F0A6FD2E
:107A24000646B4421DD809F1FF3919F8011F00298F
:107A34003FF458AF2846FFF776FEF6E728460136AE
:107A4400FFF771FE19F806100029F7D1A642BFF41A
:107A540049AF20212846013CFFF765FEF6E70026E2
:107A6400F0E720212846013CFFF75DFED9E73B689B
:107A74001A1D3A60302128461C68FFF754FE78210D
:107A84002846FFF750FE00220823CDE900322146A4
:107A9400102280E703B0BDE8F08F00BF2DE9F84F56
:107AA400B0F806A04579D2F800B09DF828900AFBFA
:107AB40005F5043D88460BEB0301A94203F10404D8
:107AC40088BFA5EB030BB4FBFAF607460AFB164482
:107AD400C2F800B04EB9AAEB04055D4528BF5D4667
:107AE400BBF1000F04D1BDE8F88F3F68013EF1E718
:107AF400043408EB06003C442A46B9F1000F0DD0CB
:107B04002146ABEB050B02F0B3FCDA452E443F688B
:107B140055464FF0000428BF5D46E1E70146204684
:107B2400EFE7FFF792BDF8B546790146721E0546A8
:107B3400002393422D6803D30024A64202D8F8BD43
:107B44000133F6E70F682846FFF7BAFD01343946DA
:107B5400F3E72DE9F843068ACD1C0746FFF78CFDB1
:107B6400043E35440446B5FBF6F5F0B14FF480739A
:107B7400EDB28380C680013D076081464FF0000866
:107B8400A84512D23846FFF777FD064648B1637917
:107B94000133637108F10108C9F8000007608146E8
:107BA400EEE72046FFF7BFFF34462046BDE8F883E2
:107BB40001210430FFF72BBD10B501210446043028
:107BC400FFF731FDC0B220B92046BDE81040FFF7F1
:107BD400AABF10BD1FB503920022009203AAFFF7AB
:107BE4005DFF05B05DF804FB1FB50392012200920E
:107BF40003AAFFF753FF05B05DF804FB41DF7047AC
:107C0400064B10B500241C70054B1C60BFF35F8F3E
:107C14000449054800F03BF8204610BD5C2A0020CA
:107C2400602A002010A80200542A002007B500236F
:107C34000DF107008DF80730FFF764FCF1EE103A00
:107C440023F09F03E1EE103ABFF35F8F0A4B40220B
:107C5400C3F884219DF80700FFF778FC02F054FA7A
:107C640020B103B05DF804EBFFF7C8BF20BF40BFED
:107C740020BF03B05DF804FB00E100E0836800224C
:107C84005A60C3E904229A60DA601A6070470B688C
:107C94004A684360934208BF0023016008BF436001
:107CA4007047436843B10268916852680B44934239
:107CB400436004BF002343607047000010B50D49C2
:107CC400A1F59472914201D800200FE08C1AE30FC1
:107CD40003EBE4035B1002EBC30452F8333083423A
:107CE40005D802D204F10802ECE7606810BD214611
:107CF400E8E700BF14AD020008B5FFF7DFFF024B51
:107D0400002808BF184608BDD6AB02004FF07043E8
:107D140093F8E02F062A10D1D3F8E42F12070CD1E0
:107D2400D3F8E80F00F0F003302B08D000F0E000A7
:107D3400A0F1400358425841704700207047012089
:107D440070474FF0704393F8E02F062A0CD1D3F814
:107D5400E42F120708D1D3F8E80F00F0F000A0F1E7
:107D640030035842584170470020704708B5FFF768
:107D7400CDFF40B14FF08053884AD3F82433C3F386
:107D84000423C2F84035FFF7DCFF10B1844B854A69
:107D94005A67FFF7BBFF48B14FF080534FF0804262
:107DA400D3F84432C3F34233C2F83C35FFF7C9FF7A
:107DB40030B17D4AD2F8FC3023F08073C2F8FC3035
:107DC400FFF7A4FF40B14FF080430022C3F80C2119
:107DD400C3F81021C3F83825FFF7B3FF20B14FF0E3
:107DE40080430322C3F8A025FFF7ABFF60B16F4BBC
:107DF4000522C3F810260122C3F888260022C3F8FE
:107E040018263F22C3F814264FF0704393F8E02F4E
:107E1400062A50D1D3F8E42F11074CD1D3F8E83F08
:107E240003F0F003502B46D14FF08052604BD2F850
:107E34000414C3F82015D2F80814C3F82415D2F892
:107E44000C14C3F82815D2F81014C3F82C15D2F862
:107E54001414C3F83015D2F81814C3F83415D2F832
:107E64001C14C3F84015D2F82014C3F84415D2F8F2
:107E74002414C3F84815D2F82814C3F84C15D2F8C2
:107E84002C14C3F85015D2F83014C3F85415D2F892
:107E94003414C3F86015D2F83814C3F86415D2F852
:107EA4003C14C3F86815D2F84014C3F86C15D2F822
:107EB4004424C3F87025FFF729FF48B14FF08053DD
:107EC4004FF08042D3F8583203F04F03C2F8E43E37
:107ED400FFF71CFF48B14FF08043D3F80024D207CA
:107EE40044BF6FF00102C3F800244FF08053D3F86D
:107EF4003021062A0AD1D3F83431062B01BF2D4A8A
:107F0400D2F83C3743F48063C2F83C37264AD2F8AF
:107F1400883043F47003C2F88830BFF34F8FBFF347
:107F24006F8F4FF01023D3F80022002A03DBD3F81D
:107F34000432002B2EDA204B0122C3F80425D3F897
:107F44000024002AFBD04FF010221521C2F80012A1
:107F5400D3F80024002AFBD04FF010231522C3F8D5
:107F64000422154BD3F80024002AFBD00022C3F8C6
:107F74000425D3F80024002AFBD0BFF34F8F0A490D
:107F84000E4BCA6802F4E0621343CB60BFF34F8F19
:107F940000BFFDE70A4B0B4A1A6008BD00300140E0
:107FA40000C007400DF0ADBA00ED00E00050004005
:107FB40000C000400010004000E001400400FA0549
:107FC400C02200200090D00372DF704773DF704737
:107FD40076DF70477ADF70477CDF70477FDF70475A
:107FE4008FDF7047B1DF7047FEF79CBF072837B5B6
:107FF4000D4621D00D281AD1204B21482149C01A01
:10800400C008000440F00300FEF706FD1E4B1F49A4
:1080140018882A4601F0D2FF30F008022CD043F22F
:108024000202904228D043F20142904224D003B08D
:10803400BDE83040FEF776BF01291DD10F4B104C2F
:108044001349E41AE408240444F00300FEF7E4FCB2
:1080540061238DF804300C4B0E481B88ADF8065094
:108064000DF1060201A900F013FF024620B10A49EE
:1080740044F00100FEF7D4FC03B030BD3CA602007E
:1080840064A6020014AD0200DE220020B82A0020FB
:108094002EAD0200E022002042AD020008B5064BDE
:1080A40001211878FFF792FF08B1FEF73BFFBDE806
:1080B4000840002000F0D8BADC2200200388212BDD
:1080C40037B5054670D007D8112B49D0132B5DD096
:1080D400102B17D003B030BD522B7DD0562B00F09F
:1080E40083803B2BF6D14448444B4549C01AC00811
:1080F400000440F00400FEF78FFCA8881321FFF76A
:1081040067FF4AE03D4B3C4C3E49E41AE408240432
:1081140044F00300FEF780FC012000F0A5FA0020E3
:1081240000F0AEFAA988384D3848298001F05EFE87
:1081340008B1FEF7F7FE6B238DF800300123ADF88C
:10814400043001AA2B883248694600F0A1FE024699
:108154000028BFD02F4944F00100FEF761FCB9E7C5
:10816400264B25482C49C01AC008000440F00300DF
:10817400FEF752FC012000F083FA234B4FF6FF7206
:108184001A8003B0BDE83040FFF788BF1E480023C3
:1081940000881A468521FFF721FF00289AD003B0F2
:1081A400BDE83040FEF7BEBE144B13481B49C01A4D
:1081B400C008000440F00400FEF72EFC0023A88849
:1081C4008DF8043001A98DF80530FFF709FF002868
:1081D40080D0FEF7A7FE7DE70B4800231A46194618
:1081E4000088FFF7FFFED8E70348044B0C49C01A88
:1081F400C00800047DE700BF64A602003CA602009C
:1082040092AD020067AD0200DE220020D42A0020D5
:10821400E022002042AD020071AD02007EAD0200FA
:10822400A7AD020008B5037893B9838A83B10369C3
:108234001B786B2B0DD1094B09480A49C01AC00899
:10824400000440F00300FEF7E7FB074B01221A701D
:1082540008BD632BFCD1054BF8E700BF3CA6020028
:1082640064A60200BCAD0200642A0020652A002036
:1082740008B503784BB9054B3B211888FFF7A8FED6
:1082840018B1BDE80840FEF74DBE08BDDE2200204F
:1082940010B50A4B0A4CE41AE408240444F003041D
:1082A40002203AB100F0E0F906492046BDE810404A
:1082B400FEF7B2BB00F0E4F90349F6E73CA602007E
:1082C40064A60200D4AD0200E5AD020038B5054D48
:1082D400044645F001054FF47A40A847013CFAD121
:1082E40038BD00BFE0AE0200FEF71CBE07B50D4B63
:1082F4000D480E49C01AC008000440F00300019064
:10830400FEF78AFB4FF0A043032209490198C3F802
:108314007C274FF00042C3F8082503B05DF804EB56
:10832400FEF77ABB3CA6020064A60200F7AD020089
:1083340019AE02002DE9F0474FF0A0430C22A6B07D
:10834400C3F86C274FF400410020FEF7A9F908B1E7
:10835400FEF7E8FDFEF7D8F8012000F0ACF9FFF7CE
:1083640037F808B1FEF7DEFDA64840F26662012147
:10837400FEF782FD08B1FEF7D5FDFFF741FC08B119
:10838400FEF7D0FD01F082FE08B1FEF7CBFD00231D
:1083940017A90120179301F005FF08B1FEF7C2FDEC
:1083A40017A801F0A1FF08B1FEF7BCFD11239649FF
:1083B4008DF820300E2208A8FFF70EFE08B1FEF754
:1083C400B1FD0023ADF860305023ADF85C30A0233C
:1083D400ADF85E3017A84FF4C873ADF86230FFF7FC
:1083E400F9FD08B1FEF79EFD8848002101F05EFB0F
:1083F40008B1FEF797FD002308938548854B029347
:1084040002A901F0E1FC08B1FEF78CFD824B834820
:10841400089308A900F0C2FC08B1FEF783FD804B65
:108424008048179317A901F05BFD08B1FEF77AFDA8
:1084340041F22353ADF804307A4B7B4C9B7C8DF88E
:1084440006303C22002108A802F03BF802238DF8F4
:1084540020303C2240F20163002117A8ADF82230FD
:1084640002F02FF822460123ADF86C3052F8041BB9
:1084740001AB08A81C9300F067FE08B1FEF752FD9B
:108484006A4AA16817A800F05FFE08B1FEF74AFD2A
:108494001822002102A802F014F801238DF81D30DF
:1084A4008DF8083060496248402302AA0493FFF71C
:1084B4008BFD08B1FEF736FD1422002117A802F047
:1084C40000F84FF420334FF42022CDE91823594B00
:1084D4001C930325584B8DF8685017A81D9301F081
:1084E400FDF808B1FEF71EFD4FF0A044534BC4F84D
:1084F4007057C4F87057524D5249ED1AED082D04C7
:1085040045F00308404645F00109FEF785FA4E4957
:1085140000224846FEF784FAFFF7C0FD00264FF01C
:1085240080574FF4FA70C4F80875FFF7CFFEC4F80B
:108534000C754FF4FA70FFF7C9FE012E30D0022EED
:1085440056D01EB9D4F81065C6F3C066DFF814A17E
:108554003220FFF7BBFE9AF8003053B1C4F8087517
:1085640040F6B830FFF7B2FE0023C4F80C758AF861
:108574000030364B1A783AB1354A11884FF6FF72FB
:1085840091421CBF00221A70FEF7E4F808B9FFF705
:108594004DFBFFF7ABFE4FF00043C4F80C35C0E7CA
:1085A4002B4B1B884FF6FF7293421DD0294E306827
:1085B400716817AA03C2317A11700822ADF820201D
:1085C400164808AA17A900F063FC024630B92249EC
:1085D400C4F808754046FEF71FFA03E01F494846F1
:1085E400FEF71EFA0226B1E71D4945F00200F2E744
:1085F400D4F8103513F0006304BFC4F80C751E469C
:10860400A4E700BFC4220020C6AE0200A42A0020B2
:10861400D42A0020ED7F020029820200E0220020FB
:1086240095820200B82A0020CC220020D822002003
:10863400DC22002075820200ED8202003CA60200CA
:1086440064A6020031AE020046AE0200652A002094
:10865400DE220020BDAE020055AE020070AE020064
:108664008BAE0200642A0020044B1A5C0123934061
:108674004FF0A042C2F80C35704700BFE6AE0200CE
:10868400044B1A5C012393404FF0A042C2F8083512
:10869400704700BFE6AE020008B50020FFF7F0FF08
:1086A4000120FFF7EDFF0220FFF7EAFFBDE80840D5
:1086B4000320FFF7E5BFC20708B501460CD54FF00C
:1086C400A0430322C3F84427C3F84827C3F84C2720
:1086D400C3F85027FFF7E0FF8B070AD54FF0A043FC
:1086E4000C22C3F83427C3F83827C3F83C27C3F84F
:1086F400402708BD38B5074C051E04F1080318BF10
:108704001C4623682BB11A6822605B682846984788
:10871400F7E738BDE82A002020B9054B01225A703A
:10872400FFF7E8BF012802D1014A9070F8E77047CB
:10873400E02A002020B9034B01225A70FFF7DABF68
:10874400704700BFE02A002038B50B4C237883B96A
:108754000A486360A3602361E36000F059F80546AA
:1087640001F0D2FC08B900F05FF801232370284619
:1087740038BD8525FBE700BFE02A00201D870200E5
:1087840037B50B4C00230DF107008DF80730FEF7C9
:10879400B9FEE368013BE360E56815B900F056F8FB
:1087A400A5709DF80700FEF7D1FE03B030BD00BFF1
:1087B400E02A0020012813B508D003281CD018B9DA
:1087C400114B0122C3F8802002B010BD0F4C0023CE
:1087D4000DF107008DF80730FEF794FE23780BB9EE
:1087E400FFF7B2FFE3689DF807000133E36001235C
:1087F400A370FEF7ABFEE7E700F016F802B0BDE8A1
:108804001040FFF7BDBF00BF00E100E0E02A0020F8
:10881400044A137923B901211060918018467047E6
:1088240085207047F42A0020074B1A68D2075FBFDF
:10883400C02283F8002301221A604FF080430122F2
:10884400C3F81825704700BF00E100E04FF08043F3
:108854000122DA60D3F81824D203FBD47047000055
:108864004FF0804307B5D3F800217AB10022C3F852
:108874000021D3F800210092009A0122C3F80823B2
:108884000F4B587910B95A711B6898474FF08043C1
:10889400D3F8042182B10022C3F80421D3F80421BF
:1088A4000192019A0222C3F80823054B1B68012098
:1088B40003B05DF804EB184703B05DF804FB00BF98
:1088C400F42A002000F1804000F5C040002382B06B
:1088D400036003680193019B02B07047800000F1BC
:1088E400A040D0F8002722F44032C0F80027D0F886
:1088F400003743EA0141C0F800177047C20801235A
:1089040000F0070003FA00F08B5C184388547047AA
:10891400054B4FF0FF32072843F8202084BFC018CE
:1089240080F84820704700BFFC2A002038B5144D59
:1089340095F858400CBB2022FF2105F1300001F0CE
:10894400C0FDE0B20134FFF7E3FF0C2CF9D10D4B6D
:108954000022C0216A6583F80613402119604FF490
:10896400BE70FFF7AFFF084B4FF00041C3F804138C
:10897400012385F85830104638BD0820FCE700BFB5
:10898400FC2A002000E100E000600040034B93F863
:108994005800003818BF0120704700BFFC2A00208F
:1089A4002DE9F041DFF8E48008EB0003054693F974
:1089B4003030002B0F4664DA8B78C3F34003002B6E
:1089C4000BBF082400240C2108218C4202D104206E
:1089D400BDE8F08158F8240001303DD108EB0501D1
:1089E40066B248F8242081F830601BB908EB040310
:1089F40083F84850BB785A070ED4D9072ED5AB005C
:108A040003F1A043D3F8002722F00202C3F80027A1
:108A14001D492846FFF772FFBB783A7813F002032A
:108A240025D0A40004F1804404F5C0442D02D4F8F8
:108A3400103523F4473323F44073C4F8103512047B
:108A4400D4F8103505F4F85502F4403215431D43AB
:108A5400C4F810550020BBE70134B6E77A7805F571
:108A6400E0734FF0A041920041F82320D0E7083E84
:108A740048FA86F696F8505045EA821286F8502055
:108A8400E8E70820A4E700BF502B0020FC2A0020C0
:108A94004FF0A043D3F8103523FA00F000F00100A2
:108AA400704700002DE9F04F87B00024584D03941F
:108AB4004FF48072012102F1804303F5C04390B268
:108AC4001B68012B06D1D5F804330B4202D0FFF703
:108AD400F9FE0C430432B2F5907F4FEA4101EAD12A
:108AE4004B4BD3F87C31012B0AD14FF4BE70FFF706
:108AF400E9FE4FF0A04344F00044D3F8103503934B
:108B0400E3B2D3B1434F00250126344210D0AB0069
:108B140003F1804303F5C043D3F81005D3F81015CF
:108B240057F8253023B1C1F30141C0F3042098471D
:108B34000135082D4FEA4606E7D1002C61DA002200
:108B44004FF0FF33CDE90423DFF8C880DFF8C89085
:108B540000273E464FF0A04B19F9014B631C45D04A
:108B6400C4F3C20318336B440122E5B204F03F009E
:108B740004F0070402FA04F413F8042C224235D05A
:108B840008EB0002AD0992F9302058F822A0BAF19E
:108B9400000F09D1032D29D104A901930090FFF7F7
:108BA400ADFEDDE9000301E0032DF5D000F5E07131
:108BB40013F80C3C5BF821102342C1F3014105D0AA
:108BC400022913D1032D0CD1294604E003290DD128
:108BD400032D06D1022100900136FFF77FFE009895
:108BE400F6B2BAF1000F01D02946D0470137042F5D
:108BF400B2D136B14FF0A043039AD3F81035934263
:108C040002D107B0BDE8F08F0393049B05939DE761
:108C140000600040FC2A00204C2B0020014B1B6804
:108C2400184700BF582B002070B505461646084665
:108C34000AB90E2070BD00231360002DF9D02B68F3
:108C4400002BF6D0EB8813F003040ED100F012FED3
:108C5400C0B214280BD02B7983420AD9EA882B6836
:108C640000FB023030602046E4E70720E2E70520FD
:108C7400E0E70420DEE7A8DF7047ADDF7047AEDF32
:108C8400704762DF704770B505468AB00C4600290C
:108C94005ED000285CD00388502B33D0572B6BD088
:108CA400102B55D181886069002601AA0196FFF72F
:108CB400BBFF0223218AA888ADF80A6002AACDF876
:108CC4000CD0ADF80830FFF7D8FF002840D1A369D5
:108CD400002B3DD0039800F0EDFD002838D0019E14
:108CE4000EB1012333701822002104A801F0E9FB1E
:108CF40002238DF81030AB88ADF818300594A369C1
:108D0400079623E08188606902AAFFF78DFF182285
:108D1400002104A801F0D5FBAB882189ADF81830F7
:108D2400EB88029A05949942079218D12E8A022E52
:108D340015D16AB105F1120000F0BCFD029B48B1E7
:108D440001221A708DF81060A3690BB104A898472A
:108D54000AB070BD187003238DF81030F4E7A289AF
:108D64009A42F5D1A369002BF2D005F112020892C0
:108D74002A8AADF82420E9E78188606902AAFFF70E
:108D840053FF01460028E3D1029E3378002BDFD045
:108D9400182204A801F095FB0123AAE7F0B53A4B89
:108DA4008FB002AD04460A4603F1100C2F46186832
:108DB40059682E4603C6083363453546F7D1002C5F
:108DC4005FD0002A5DD01368A36121463846FFF7BF
:108DD40058FF002853D12246012512F8023B8DF892
:108DE400063001A92846ADF80450FFF744FF0028D7
:108DF40045D10146202206A801F063FB2246022346
:108E0400ADF8183012F80C3B8DF81A30BDF8243048
:108E14001E4E6088079623F44F6323F00F0343F438
:108E240040632B4306A9ADF824308DF829508DF802
:108E34002A5000F043FD10BB0146202206A801F091
:108E440040FB22460323ADF8183012F8043B8DF89A
:108E54001A30BDF824306088079623F4875323F032
:108E64001F0343F480532B43ADF8243006A940F28A
:108E740001138DF82950ADF82A3000F01FFD0FB012
:108E8400F0BD0E20FBE700BF14AF02001400010088
:108E9400F0B50F4687B016461C46054610B3406928
:108EA40001AA1946FFF7C0FED0B94FF6FF739C42E2
:108EB4001AD0019BC3B11B78C3B13388142B17D8C4
:108EC400AB88CDF80B008DF80F00ADF8083002A97F
:108ED40001232046CDE904678DF80A30FFF7CFFE61
:108EE40007B0F0BD0E20FBE70520F9E70820F7E7FF
:108EF4000720F5E70369C26893429CBF80681B188A
:108F0400013B981A70472DE9F843D0E902940546CD
:108F1400A9EB04084068904520440F46144404D942
:108F240001F0A6FAEC60BDE8F8834246A4EB09041C
:108F340001F09EFA6868224607EB0801F0E72DE984
:108F4400F843C5680646894617464FF00008346959
:108F5400B3687068A54228BFE418013C621B5C1B1F
:108F6400BC4228BF3C46944228BF14464946284484
:108F7400224601F07DFAB3682544AB4208BF0025C0
:108F84003F1BA044A144F560E1D14046BDE8F8830D
:108F940010B5114C114AA2610223C4E90433104BE9
:108FA400E361A2644FF400730E4A0F492362E26442
:108FB40000231022E01DA3626362E362A36563657C
:108FC400E365226501F0B0FA0849204601F0ACFAE5
:108FD4002023A37110BD00BF602B002024AF02002A
:108FE400E82B0020D82B00202DAF020031AF020067
:108FF40070B5164B182400FB04451D4404FB0033D4
:109004001646DC6A012C0ED0022C18D0E4B928468E
:10901400FFF770FF864204D832462846FFF773FFF5
:109024003446204670BD2846FFF764FF8642344626
:1090340028BF044622462846FFF765FFF1E7284685
:10904400BDE87040FFF77BBF0024EAE7602B0020F7
:10905400FFF79EBF6DDF704779DF70477DDF704794
:1090640064DF70472DE9F04F85B000250E9CBDF8F4
:109074003CB0B4F800A00191074690461E46A946AC
:109084003A884A450DDC45B12388013BA3EB0A032A
:109094009BB2FF2B3AD806F80A30002005B0BDE891
:1090A400F08F7A6852F82900039000220DF10B0129
:1090B40003A8FFF7D5FF0028F0D19DF80B20424507
:1090C40021D12288002D14BF0020022002EB0801C8
:1090D400014459451ADC3DB9013292B2019B228008
:1090E400B35422880132228022880DF10B013244CC
:1090F40003A8FFF7B5FF0028D0D121889DF80B20E5
:109104000A442280012509F10109B9E70C20C5E7C9
:109114002DE9F341089FBDF824801546CDE9007878
:10912400022204461E46FFF79DFF50B93346102223
:1091340029462046CDE9087802B0BDE8F041FFF7A2
:1091440091BF02B0BDE8F0812DE9F04F00231788EC
:10915400138090F82D3085B006460D4614465BB357
:10916400082F01D80C2028E102A8FFF773FF00287C
:1091740040F023812388DDF809100822EA5423886B
:1091840001339BB21B222380EA54238801339BB210
:10919400EA182380E950BDF80D30938023889DF8A8
:1091A400082006339BB212F0FE0218BF012223806E
:1091B400EA54238801332380B378FBB12388043332
:1091C400BB42CFD802A8FFF747FF002840F0F58044
:1091D40023880322EA54238801339BB21922238073
:1091E400EA542388BDF8082001339BB2E918238090
:1091F400EA54120A4A70238802332380F2789AB11F
:109204002388D91CB942ADD80221E95423880133FB
:109214009BB201212380E95423880B449BB2238011
:10922400EA5423880B4423807268AAB12388D91C8A
:10923400B94297D8022192F90020E95423880133D6
:109244009BB20A212380E954238801339BB22380F3
:10925400EA542388013323803389002B40F0A18012
:10926400338A5BB1CDE900472B460722032106F17F
:109274001000FFF74DFF002840F09F80338B5BB157
:10928400CDE900472B461522142106F11800FFF7FB
:109294003FFF002840F09180326A002A40F090801D
:1092A400D6F82480B8F1000F30D0B8F80430218803
:1092B400981C8A1C0244BA423FF654AFFE283FF67B
:1092C40051AF03336B54238801339BB2FF222380B5
:1092D400EA54238801339BB22380B8F80020EA546F
:1092E400E918120A4A702088023080B22080B8F847
:1092F40004205AB1D8F8081000296BD0284401F092
:10930400B7F82388B8F804201344238096F82C3047
:10931400002B40F09880307800284ED03388012B01
:1093240058D0228802F1020CBC453FF61BAF01283D
:1093340005D17378023313449F42FFF413AF023F05
:10934400BF1ABFB202A905EB0C00ADF80870FFF715
:1093540085FE90BB3178BDF80830022900F0B98051
:1093640072789A4202D39F4280F0B180012940F082
:10937400B280974293B2C0F0AE80ADF808300821B5
:10938400BDF80830FE2B3FF6EDAE22880133AB5416
:109394002288013292B22280A95422881344238065
:1093A4000BE0CDE900472B460622022106F1080016
:1093B400FFF7AEFE00283FF453AF05B0BDE8F08FD1
:1093C400B4F800C00CF10603BB423FF6CBAE1188E3
:1093D400052901D80720F0E76FF4486E01EB0E036E
:1093E4009BB24FF27D3E7345F4D95388052BF1D9D6
:1093F4006FF44860181880B27045EBD94FF6FF70CF
:10940400814201D09942E5D8052305F80C30238820
:1094140001339BB212212380E954238801339BB288
:1094240023801188E954E818090A4170238802331B
:109434009BB223805288EA54E918120A4A7023889E
:10944400023323802CE7B36A002BC3D04FF000080B
:109454004FF00C0A4FF0160BB16A5FFA88F20AFB60
:1094640002F201EB0209B9F80430981CFE283FF619
:1094740079AE208803332B54238801339BB2238095
:1094840005F803B0238801339BB223808A5AEA5437
:10949400E918120A4A702088023080B22080B9F894
:1094A40004205AB1D9F80810002993D0284400F0B8
:1094B400DFFF2388B9F804201344238096F82C2076
:1094C40008F101085FFA88F39A42C5D823E7092115
:1094D40056E79F42FBD2ADF8087050E775DF70473E
:1094E40076DF70477ADF70477BDF7047034B1A885B
:1094F40082420CBF18460020704700BF042E002093
:10950400024B9B6903B11847704700BFE82D002048
:1095140073B585B22846FFF7E9FF044638B3174E02
:10952400027A337B9A420CD200F10A012846FFF7F3
:10953400D5FFF0B111281AD002B0BDE87040FFF792
:10954400DFBF00230372337C43B13B212846FFF77E
:10955400C7FF30F0080301D0FFF7D2FF736933B1BE
:1095640000228DF80420ADF8065001A8984702B0F7
:1095740070BD237A01332372F9E700BFE82D002080
:1095840037B50B46497A0F4A79B9D2E901141D7AE5
:109594000246002D18BF21465868FDF75BFF78B1DD
:1095A40003B0BDE83040FFF7ABBF00211972536927
:1095B40033B10122ADF806008DF8042001A89847C4
:1095C40003B030BDE82D00204B8802889A4212D89F
:1095D40042889A420FD380888B8840F2F3118842E4
:1095E40094BF021A421A9A4205D80844984234BFDA
:1095F4000020012070470020704700000388122BD0
:1096040070B5014659D004D8102B1ED0112B44D06C
:1096140070BD502BFCD12F4BC288DB899A42F7D105
:10962400038A022BF4D186883046FFF75FFF054694
:109634000028EDD001F1120000F03CF938BB686855
:10964400FDF750FF0028E3D009E0C37B012BDFD1F5
:109654004FF6FF70FFF74AFF054620B90420BDE826
:109664007040FFF74DBF1C4A8E88068000230372AA
:109674001368C0F80A305368C0F80E3010310A304D
:10968400FFF7A2FF134B6872DB89002BC0D1294678
:109694003046BDE87040FFF773BF8088FFF726FFB0
:1096A40004460028B4D04068FDF71CFF08B1FFF75A
:1096B40027FF4FF6FF732380AAE786883046FFF71B
:1096C40015FF05460028A3D008310A30FFF77CFFB8
:1096D4006872DCE7E82D0020182E0020F8B5064655
:1096E40048B305460FCD154F3C460FC495E8070017
:1096F40084E807003068124C3C60B0B1FFF7F2FE1A
:10970400C0B9326813682360536863600D480E4A19
:109714004FF6FF7303800D4B40F8043F0021FDF723
:1097240087FE002818BF032004E02046FFF7DCFE74
:109734000028EBD0F8BD0E20FCE700BFE82D002088
:10974400182E0020042E002015950200202E002043
:1097540073B50191019C06466CB100252C4629463F
:1097640001A8FDF71CFF18B106EB440301349D80EA
:109774000135142DF3D13046346002B070BD0000C1
:109784002DE9F04703888488112B8CB005463DD021
:109794001A2B42D0102B19D1DFF8C080D8F808302A
:1097A400DB430093D8F804106846FDF724FF0099C2
:1097B40001A8FFF7CDFF0DF108090027019B9F4287
:1097C40007D3132C12D90420FDF7ACFB0CB0BDE871
:1097D400F08739F802AB00260136514608EB8600C3
:1097E400FDF7D3FE1D2EF7D10137E7E716482146D2
:1097F400FDF7C2FE15482146FDF7BEFEEB7B012BAB
:10980400E4D013482146FDF7B7FEDFE70E482146B2
:109814000CB0BDE8F047FDF7B8BE037A0D481F2B26
:109824004FEA131521460AD9FDF7A6FE022D0A4870
:109834002146EDD00CB0BDE8F047FDF79DBEFDF725
:10984400A4FE05482146E3E7482E0020442E0020CC
:109854004C2E0020502E0020542E0020402E00209C
:109864001328014602D80248FDF799BE002070472C
:10987400442E002010B50446FFF7F2FF002814BF61
:109884002046142010BDAADF7047002301380B7056
:10989400042806D8DFE800F00306080A0C001123A8
:1098A4000B7070472123FBE73123F9E71223F7E715
:1098B4002223F5E7008800F001007047F0B58B78AB
:1098C40091B00C46012B38BF012300278DF80E30D0
:1098D40005460B88607CADF80C306946ADF8007025
:1098E4008DF80270FFF7D1FFA07C0DF10101FFF7A5
:1098F400CCFF1646237BE27B217D43EAC203227C14
:1099040043EA02139DF80220B94222F0190203F03F
:10991400190314BF02210121134361F342031C22E2
:10992400394609A88DF8023000F0CBFD637B13F0B3
:10993400300F14D00DF10901E07CADF808708DF8FA
:109944000A70FFF7A2FF11238DF808309DF80A3042
:10995400012102AA61F342038DF80A300E92637B5F
:109964008DF82430A37B8DF825300023CDE9063310
:10997400089303AB0493A388ADF81C30A368CDF817
:1099840014D01BB1E288ADF818200893A36973B30F
:1099940001A90022ADF804208A701A88ADF82C20A1
:1099A4005A88ADF82E205A680D91187B0A92FFF759
:1099B4006CFFA3690DF10501587BFFF766FFA369EE
:1099C4009A7A197A41EAC201DA7A9B7B41EA021156
:1099D4009DF80620002B01F0190122F0190214BF92
:1099E40002230123114363F342018DF80610E36956
:1099F40003B10C93334604AA09A92846FFF743FF91
:109A040011B0F0BD90DF7047A5DF7047B5DF704738
:109A14007FB5204B204CE41AE40824040E46034688
:109A24000A4605461D4944F00400FDF702F80023E8
:109A34006A4602A92846ADF80860ADF80A60ADF898
:109A44000C30ADF80E300093ADF80430FFF7DAFFB8
:109A54000646D8B1FEF750F944F001040346104914
:109A64002A462046FCF7E5FFBDF80020BDF8023089
:109A740052EA030103D00B492046FCF7DAFFBDF894
:109A840004201AB108492046FCF7CAFF304604B046
:109A940070BD00BF3CA602007CA6020038AF0200E5
:109AA40067AF0200B1AF0200F0AF020078B14FF02F
:109AB400171303601B2303711723C380038141F62B
:109AC4001B320023016143818281184670470E20B6
:109AD400704700002DE9F047868886B005460C469D
:109AE400002E40F037810388242B00F0D58024D841
:109AF400112B00F0A180232B00F00781102B5ED0E6
:109B0400A37A002B00F02681E1880020FFF77CFF78
:109B14000346002840F00C819048914D91492D1A3C
:109B24004FF48072ED0862812D04E28845F0040050
:109B340006B0BDE8F047FCF77CBF3A2B00F0848008
:109B4400552BDDD1854B864DC7888749ED1AED0825
:109B54002D0445F004003B4632460390FCF769FFB0
:109B6400E38882490398A672172F3A4638BF172212
:109B74009A4228BF1A4622810096FCF764FFE188C6
:109B84003046FFF743FF38B1FEF7B6F8784902468E
:109B940045F00100FCF744FFE27A002AB0D12369C2
:109BA400002BADD040F67721ADF812202289ADF814
:109BB4001010ADF8142004A920469847A0E7C37BF1
:109BC4000A790A73012B21D0022B22D0E28823893F
:109BD400934212D2614B624D6649ED1AED082D0491
:109BE40045F0040630460023FCF723FFE1880020FB
:109BF400FFF70AFF78B90123E372217B637B8B4271
:109C0400BFF47EAF0020FFF703FF79E70B88E38002
:109C1400DCE74B88FBE7112807D101235649A372DF
:109C240000223046FCF7FCFEE7E7FEF765F85349EF
:109C3400024645F00100F5E71723CB800B8141F67E
:109C44001B334E818B815BE74289CB8844489A421F
:109C540028BF1A46414BC01A172A4FEAD00038BF12
:109C6400172200040A813346454940F00400FCF7FA
:109C7400E0FE23696BB1E27A5AB140F67722ADF87F
:109C840010202289ADF81260ADF8142004A92046F2
:109C940098470023638133E7B0F80890B0F80AA02E
:109CA4008789B0F80E80027A2C4B2D484A73C01A6B
:109CB400C0080004334640F0040032490390FCF726
:109CC400B8FE314903985246FCF7AAFE2F4903987F
:109CD4004A46FCF7A5FE2E4903984246FCF7A0FE2F
:109CE4002C4903983A46FCF79BFE2369002B3FF46A
:109CF40007AF4DF67A22ADF81020627B8DF815601F
:109D0400ADF812608DF8142055E7077A134B144808
:109D14002149C01AC008000440F004003B46324602
:109D2400FCF787FE217BA888B94228BF39466AE739
:109D340011280FD0FDF7E0FF094B104902460748F0
:109D44001B1ADB081B0443F0010006B0BDE8F04712
:109D5400FCF766BE06B0BDE8F08700BF3CA6020073
:109D64007CA6020099B2020041B102007BB102005C
:109D7400BAB1020046B0020083B00200D5B00200BE
:109D840006B10200E9B1020018B202002AB20200D0
:109D94003CB202004CB202005CB20200B0DF704779
:109DA40066DF704710B5002104464088FFF7F8FFCE
:109DB400034608B9237210BD112801D10123F9E724
:109DC4006368BDE81040184760B159B10378DE2BD1
:109DD4000AD00B684360DE2303704FF6FF734380A1
:109DE400002070470E2070470820704728B1037880
:109DF400DE2B04D14180002070470E2070470820DC
:109E04007047F0B5054685B00C46002942D00028BD
:109E140040D00B78DE2B3DD182884B889A4204D106
:109E24000B7A13B10846FFF7BDFF2B88112B33D0F3
:109E3400512B0FD0012B2DD12B7A012B2AD1A9889C
:109E44006288914226D12046237205B0BDE8F040D5
:109E5400FFF7A8BFAE886388B3421BD1AF79022F46
:109E640018D1AD7B2B1F022B14D800211022684679
:109E740000F027FB052D18BF4FF4C0736946304628
:109E840018BFADF804308DF80070FFF787FF08B1F4
:109E94006368984705B0F0BD6388AA889A4204BFF6
:109EA4004FF6FF736380F5E7A8DF7047AEDF7047B6
:109EB40062DF70470288502A10B40DD1C4884A88E2
:109EC400944209D1028A012A06D14B6923B1827CCA
:109ED4005DF8044B808818475DF8044B7047000018
:109EE400F0B50B6843618FB0334B02AA044603F10B
:109EF4001007164618685968154603C50833BB424F
:109F04002A46F7D104F112013046FFF7D1FF0028A9
:109F14004FD1A37C8DF80630224641F2235301A988
:109F24000120ADF80430FFF7BFFF002841D10146FE
:109F3400202206A800F0C5FA41F22453ADF81830E7
:109F4400A37C8DF81A309DF82530224623F01203A5
:109F540001254FF0011643F0120332F80A0B07965D
:109F640006A98DF825308DF829508DF82B50FFF770
:109F7400A5FCF0B90146202206A800F0A2FA41F29D
:109F84002553ADF81830A37C8DF81A309DF8253090
:109F94000796224623F00A0343F00A0332F8020B21
:109FA4008DF8253006A98DF829508DF82A50FFF731
:109FB40085FC0FB0F0BD00BFEBB2020000B589B064
:109FC4000123ADF80E308DF812304B89ADF8103006
:109FD4000DF107038DF80720079300220DF10E03FE
:109FE40004A9CDF813208DF817200693FFF75EFF20
:109FF40009B05DF804FB10DF7047000013B5044698
:10A0040009496846FDF743FE019808B902B010BD3E
:10A01400D0E900212046904718B16846FDF741FE7B
:10A02400F2E71120F2E700BF08B3020013B50446BB
:10A0340007496846FDF72BFE019B0BB902B010BD22
:10A044002046D3E9002190476846FDF72AFEF3E74E
:10A0540020B302000B4991F816335A09EC2313413B
:10A06400DB0706D5084B9A683AB94FF480030B60B6
:10A07400704742F20200FCF755BF1A6842F48002AE
:10A084001A60704700E100E0482A0020F7B5194F34
:10A094003C7864BB184E012520463570FFF7AEFFAF
:10A0A400112821D02046FFF7C1FF144B8DF803403F
:10A0B400186801900DF10300FDF724FA104901A876
:10A0C400FFF799FF0446B0FA80F0400938709DF814
:10A0D4000300FDF73BFA3CB90A4B34701C70FFF7E0
:10A0E400B9FF2846FFF7A2FF204603B0F0BD0824BD
:10A0F400FAE700BFB92E0020B82E002003B30200F7
:10A10400456F0200BA2E0020014B1878704700BF3B
:10A11400B92E002007B508496846FDF7B8FD019B34
:10A1240013B903B05DF804FBD3E9002090476846F7
:10A13400FDF7B7FDF3E700BF14B30200FFF7EABF72
:10A1440060DF704769DF704761DF704730B5134BDC
:10A154001B7891B0FBB1124D34240DF1020103A818
:10A16400ADF80240FFF7F0FF70B9294601A8FDF7EA
:10A174008EFD029B002BF0D003A8D3E90021904769
:10A1840001A8FDF78EFDF4E7052804D011B0BDE861
:10A194003040FCF7C7BE11B030BD00BFBB2E00205D
:10A1A40064B5020030B50C4685B0002900F0898002
:10A1B4000023CDE90133444A039301230A608DF857
:10A1C40004008DF8063001A906232020ADF80830DC
:10A1D400FFF7B8FF60B1FDF78FFD3C4B3C490246E9
:10A1E4003C481B1ADB081B0443F00100FCF718FC75
:10A1F4000023CDE9013303932268012301A9402000
:10A204008DF80530FFF79EFF60B1FDF775FD2F4B0C
:10A21400314902462F481B1ADB081B0443F0010096
:10A22400FCF7FEFB0023CDE90133039322680A23E4
:10A2340001A901208DF80430FFF784FF60B1FDF718
:10A244005BFD224B2549024622481B1ADB081B04EE
:10A2540043F00100FCF7E4FB0023CDE9023322685C
:10A264004FF4B06301A9A1200193FFF76BFF60B124
:10A27400FDF742FD154B1A49024616481B1ADB0826
:10A284001B0443F00100FCF7CBFB00252268039577
:10A2940001A9A020CDE90155FFF754FF034668B199
:10A2A400FDF72AFD094B0F4902460A481B1ADB0831
:10A2B4001B0443F00100FCF7B3FB2B46184605B022
:10A2C40030BD0E23FAE700BFB82200208CA602009E
:10A2D4002CB302003CA6020072B30200BEB302001B
:10A2E4000AB402005BB4020073B505460668FFF7C2
:10A2F40027FF2B68B34204461DD91A481A4B1B4941
:10A304001B1ADB081B0443F002000190FCF784FBDA
:10A314002B68174901983246FCF78BFB4FF08053AA
:10A324002A68D3F80C31134901989B0203F10053B6
:10A334009A1AFCF775FB2CB90F4B01221A702046B0
:10A3440002B070BD2046FDF7D7FC074B0B4902460F
:10A3540004481B1ADB081B0443F00100FCF760FBF4
:10A36400EDE700BF3CA602008CA60200AEB40200DA
:10A37400DDB402000EB50200BB2E002038B5020089
:10A384004BDF70471FB50E4C01A8FFF7F9FF70B9FA
:10A39400214602A8FDF77BFC039B002BF4D0019817
:10A3A400D3E90021904702A8FDF77BFCF4E70528D8
:10A3B40004D004B0BDE81040FCF7B4BD04B010BD37
:10A3C4007CB502007F2805D8034A044B105C5B5C13
:10A3D400184070470020704794B5020014B602007C
:10A3E400A0F16103192B98BF20387047A0F14103F5
:10A3F400192B98BF203070477F299ABF0170012024
:10A404006FF02E00704700BF5AB10A787F2A0AD82D
:10A4140000B102600021501AC3E9001118BF0120E5
:10A424007047104670476FF02E007047A0F161032B
:10A43400192B98BF20387047A0F14103192B98BFFE
:10A44400203070477F2805D8034A044B105C5B5CBE
:10A45400184070470020704794B5020014B60200FB
:10A46400024B5B689B6809211B6818470423002082
:10A47400844640EA010313F0030F18D18446202ACE
:10A484000BD32DE9F007B1E8F807A0E8F807A2F12B
:10A494002002202AF7D2BDE8F007042A07D351F896
:10A4A400043B40F8043BA2F10402042AF7D2002A38
:10A4B40005D011F8013B00F8013B013AF9D160469F
:10A4C40070478446002A2DD010F0030F04D000F802
:10A4D400011B013A26D0F7E7C9B241EA012141EA5A
:10A4E4000141202A12D3A2F120022DE9F0030B46E8
:10A4F4000C460D460E460F4688468946A0E8FA03E8
:10A50400203AFBD2BDE8F00320320BD0042A05D355
:10A5140040F8041B043A05D0042AF9D200F8011BC0
:10A52400013AFBD160467047024610F0030F16D182
:10A5340011F0030F13D12DE9F0004FF001374FF064
:10A54400803351F8044BA4EB070525EA04051D40AC
:10A5540002D142F8044BF4E7A1F10401F0BC11F874
:10A56400013B02F8013B002BF9D1704700F10101D6
:10A5740010F0030F11D010F8012B002A23D010F093
:10A58400030F0AD010F8012B002A1CD010F0030F7F
:10A5940003D010F8012B002A15D02DE970004FF0DC
:10A5A40001324FF0803350F8044BA4EB020525EA46
:10A5B40004051D4000D1F6E7A0F1040070BC10F8BA
:0CA5C400012B002AFBD1A0EB0100704726
:08A5D0003987020000000000C1
:10A5D8008597020000000000D99A0200A42A0020F2
:10A5E8000196020000000000079E0200D42A002005
:10A5F800B99E0200B82A00208B8C0200E0220020BD
:08A60800C18002000000000007
:08A61000B98702000000000000
:10A6180051A102000000000089A302000000000010
:10A628005C230020242400202C2400206423002004
:04A638001800000006
:10A63C00F0AE020000000000F6AE020000000000C8
:10A64C00FDAE02000000000001AF0200000000009F
:10A65C0006AF020000000000F5A602000000040492
:10A66C000CAF020000000000EAAE02000000000087
:10A67C00DEB2020000000404FBB20200000003037F
:10A68C0055B502000000030370B50200000003037F
:08A69C0006A802000000000006
:10A6A400C8A6020000000000D4A60200B8220020C0
:10A6B4000000000000000000000000000338FDD886
:10A6C40070470000D963020045640200D5630200AC
:10A6D4007274745F6C6F675F6261636B656E640054
:10A6E4004261636B656E647320666C757368656440
:10A6F4000061707000000000502800207F000000FE
:10A70400D02800201B5B313B33316D0025734C6F27
:10A7140067732064726F707065642028256429252E
:10A72400730D0A001B5B306D002573003C25733EDE
:10A734002025733A20002025303278002020200084
:10A744007C002563001B5B313B33306D001B5B31A8
:10A754003B33326D001B5B313B33336D001B5B318C
:10A764003B33346D001B5B313B33356D001B5B3178
:10A774003B33366D001B5B313B33376D00776172C1
:10A784006E696E6700696E666F0064656275670066
:10A7940028A7020049A7020008A7020051A7020047
:10A7A40059A7020061A7020069A7020071A702006D
:10A7B40079A7020000000000D6A7020081A70200CA
:10A7C40089A702008EA70200F02800204661746168
:10A7D4006C206572726F720053797374656D2072A8
:10A7E4006573657400000000000000000338FDD8A4
:10A7F4007047303132333435363738394142434487
:10A8040045467077725F6D676D740000D8A50200CD
:10A81400D8A50200040000004E52465F535543433E
:10A82400455353004E52465F4552524F525F535662
:10A83400435F48414E444C45525F4D495353494E42
:10A8440047004E52465F4552524F525F534F465453
:10A854004445564943455F4E4F545F454E41424C33
:10A864004544004E52465F4552524F525F494E5442
:10A8740045524E414C004E52465F4552524F525F34
:10A884004E4F5F4D454D004E52465F4552524F521A
:10A894005F4E4F545F464F554E44004E52465F45FF
:10A8A40052524F525F4E4F545F535550504F525473
:10A8B4004544004E52465F4552524F525F494E56F0
:10A8C400414C49445F504152414D004E52465F4510
:10A8D40052524F525F494E56414C49445F53544182
:10A8E4005445004E52465F4552524F525F494E56B0
:10A8F400414C49445F4C454E475448004E52465FD4
:10A904004552524F525F494E56414C49445F464C62
:10A91400414753004E52465F4552524F525F494E93
:10A9240056414C49445F44415441004E52465F45B0
:10A9340052524F525F444154415F53495A45004E6D
:10A9440052465F4552524F525F54494D454F5554FC
:10A95400004E52465F4552524F525F4E554C4C008A
:10A964004E52465F4552524F525F464F52424944FF
:10A9740044454E004E52465F4552524F525F494E37
:10A9840056414C49445F41444452004E52465F454F
:10A9940052524F525F42555359004E52465F4552F0
:10A9A400524F525F434F4E4E5F434F554E54004EED
:10A9B40052465F4552524F525F5245534F55524390
:10A9C4004553004E52465F4552524F525F4D4F44DD
:10A9D400554C455F4E4F545F494E495449414C498B
:10A9E4005A4544004E52465F4552524F525F4D55B0
:10A9F4005445585F494E49545F4641494C454400CB
:10AA04004E52465F4552524F525F4D555445585F22
:10AA14004C4F434B5F4641494C4544004E52465FC0
:10AA24004552524F525F4D555445585F554E4C4F09
:10AA3400434B5F4641494C4544004E52465F4552A4
:10AA4400524F525F4D555445585F434F4E445F49F2
:10AA54004E49545F4641494C4544004E52465F4579
:10AA640052524F525F4D4F44554C455F414C5245F5
:10AA74004144595F494E495449414C495A4544005F
:10AA84004E52465F4552524F525F53544F524147C4
:10AA9400455F46554C4C004E52465F4552524F520C
:10AAA4005F4150495F4E4F545F494D504C454D45B1
:10AAB4004E544544004E52465F4552524F525F46F3
:10AAC4004541545552455F4E4F545F454E41424CAB
:10AAD4004544004E52465F4552524F525F494F5FC4
:10AAE40050454E44494E47004E52465F4552524FE0
:10AAF400525F4452565F5457495F4552525F4F5616
:10AB0400455252554E004E52465F4552524F525F87
:10AB14004452565F5457495F4552525F414E414338
:10AB24004B004E52465F4552524F525F4452565F5D
:10AB34005457495F4552525F444E41434B004E5275
:10AB4400465F4552524F525F424C455F4950535005
:10AB54005F52585F504B545F5452554E43415445D5
:10AB640044004E52465F4552524F525F424C455F3D
:10AB7400495053505F4348414E4E454C5F414C52FF
:10AB8400454144595F455849535453004E52465F1A
:10AB94004552524F525F424C455F495053505F4CAF
:10ABA400494E4B5F444953434F4E4E4543544544ED
:10ABB400004E52465F4552524F525F424C455F49E8
:10ABC4005053505F504545525F52454A45435445A2
:10ABD4004400556E6B6E6F776E206572726F7220D3
:10ABE400636F646500000000000000001CA8020000
:10ABF4000100000028A802000200000046A802008C
:10AC04000300000067A80200040000007AA8020004
:10AC1400050000008BA80200060000009FA80200A7
:10AC240007000000B7A8020008000000CFA8020037
:10AC340009000000E7A802000A00000000A90200C1
:10AC44000B00000018A902000C0000002FA902004C
:10AC54000D00000043A902000E00000055A90200E7
:10AC64000F00000064A902001000000078A902008F
:10AC7400110000008FA90200120000009EA902002A
:10AC840013000000B3A9020080000000C7A902005D
:10AC940081000000E8A902008200000004AA02006A
:10ACA4008300000020AA0200840000003EAA0200E3
:10ACB400850000005FAA02008600000084AA02004A
:10ACC400900000009BAA020091000000B9AA0200B3
:10ACD40092000000D7AA020000820000ECAA020041
:10ACE400018200000AAB02000282000026AB0200CF
:10ACF4000084000042AB02000184000066AB020045
:10AD04000284000090AB020003840000B5AB020093
:10AD140053656E6420627574746F6E20737461740D
:10AD240065206368616E67652E0053656E64202735
:10AD34006127206368617261637465722E004661E5
:10AD4400696C656420746F2073656E64206461743B
:10AD540061206F76657220424C45204E55533A204F
:10AD6400256400436F6E6E656374656400446973A3
:10AD7400636F6E6E65637465640050485920757026
:10AD84006461746520726571756573742E00474142
:10AD9400545420436C69656E742054696D656F75F5
:10ADA400742E0047415454205365727665722054C2
:10ADB400696D656F75742E005265636569766564A7
:10ADC40020276B27206368617261637465722E00AB
:10ADD4005265636569766564204C4544204F4E2175
:10ADE400005265636569766564204C4544204F468E
:10ADF40046210050726F636573736F72206973200C
:10AE0400656E746572696E6720736C656570206D1C
:10AE14006F64652E0050726F636573736F72206880
:10AE2400617320776F6B656E2075702E00525454D9
:10AE3400206C6F6720696E697469616C697A6564F6
:10AE44002E004572726F7220636F64653A20256428
:10AE54000056657269206261FE6172FD796C612041
:10AE640067F66E646572696C64692E005665726972
:10AE74002067F66E646572696D696E646520686149
:10AE840074613A20256400424C45206261F06C6193
:10AE94006E74FD73FD206D6576637574206465F0D2
:10AEA400696C2E20566572692067F66E6465726956
:10AEB4006C656D69796F722E0062696C6469726980
:10AEC4006D00477265656E4C6F766531323334358B
:10AED4000000000000000000000000000338FDD85E
:10AEE400704711121314636C6F636B00434C4F4330
:10AEF4004B004750494F544500505253005541525E
:10AF04005400554152544500626C655F6E75730080
:10AF14009ECADC240EE5A9E093F3A3B50000406EBD
:10AF24005465726D696E616C005254540053454708
:10AF3400474552005570646174696E67206461749A
:10AF440061206C656E67746820746F202575206FAE
:10AF54006E20636F6E6E656374696F6E2030782542
:10AF6400782E0073645F626C655F6761705F646113
:10AF740074615F6C656E6774685F75706461746535
:10AF8400282920287265717565737429206F6E20D5
:10AF9400636F6E6E656374696F6E203078257820F8
:10AFA40072657475726E65642025732E005468652D
:10AFB400207265717565737465642054582F5258F6
:10AFC400207061636B6574206C656E6774682069BA
:10AFD4007320746F6F206C6F6E6720627920257503
:10AFE4002F2575206F63746574732E005468652073
:10AFF40072657175657374656420636F6D62696EE3
:10B004006174696F6E206F6620545820616E6420ED
:10B014005258207061636B6574206C656E67746848
:10B024007320697320746F6F206C6F6E6720627970
:10B03400202575206D6963726F7365636F6E647329
:10B044002E0052657175657374696E6720746F2084
:10B0540075706461746520415454204D54552074B6
:10B064006F202575206279746573206F6E20636F7D
:10B074006E6E656374696F6E20307825782E007368
:10B08400645F626C655F67617474635F657863684D
:10B09400616E67655F6D74755F72657175657374F4
:10B0A4002829206F6E20636F6E6E656374696F6EFE
:10B0B40020307825782072657475726E656420621C
:10B0C4007573792C2077696C6C2072657472792E93
:10B0D4000073645F626C655F67617474635F657855
:10B0E4006368616E67655F6D74755F7265717565C0
:10B0F400737428292072657475726E6564202573D3
:10B104002E00415454204D5455207570646174656B
:10B114006420746F202575206279746573206F6EC6
:10B1240020636F6E6E656374696F6E203078257866
:10B134002028726573706F6E7365292E00506565E3
:10B1440072206F6E20636F6E6E656374696F6E201C
:10B154003078257820726571756573746564206133
:10B164006E20415454204D5455206F66202575207F
:10B1740062797465732E005570646174696E67201A
:10B18400415454204D545520746F20257520627904
:10B194007465732028646573697265643A20257543
:10B1A40029206F6E20636F6E6E656374696F6E2005
:10B1B400307825782E0073645F626C655F67617414
:10B1C40074735F65786368616E67655F6D74755FDE
:10B1D4007265706C7928292072657475726E656465
:10B1E4002025732E0044617461206C656E67746859
:10B1F400207570646174656420746F202575206FF8
:10B204006E20636F6E6E656374696F6E203078258F
:10B2140030782E006D61785F72785F6F6374657447
:10B22400733A202575006D61785F74785F6F63747D
:10B234006574733A202575006D61785F72785F7468
:10B24400696D653A202575006D61785F74785F7467
:10B25400696D653A2025750050656572206F6E2012
:10B26400636F6E6E656374696F6E20307825782025
:10B2740072657175657374656420612064617461BD
:10B28400206C656E677468206F662025752062796E
:10B294007465732E0052657175657374696E6720E9
:10B2A400746F2075706461746520415454204D544A
:10B2B4005520746F202575206279746573206F6E34
:10B2C40020636F6E6E656374696F6E2030782578C5
:10B2D40020287265747279292E006E72665F626C22
:10B2E400655F676174740023D1BCEA5F782315DE5F
:10B2F400EF1212000000006E72665F736468000152
:10B304000000070010A6020010A6020008000000BA
:10B3140018A6020028A602000800000010A60200D9
:10B3240018A602000800000073645F626C655F6326
:10B3340066675F73657428292072657475726E651B
:10B3440064202573207768656E20617474656D7060
:10B3540074696E6720746F2073657420424C455F76
:10B36400434F4E4E5F4346475F4741502E00736440
:10B374005F626C655F6366675F736574282920721A
:10B38400657475726E6564202573207768656E2018
:10B39400617474656D7074696E6720746F20736571
:10B3A4007420424C455F4741505F4346475F524FCC
:10B3B4004C455F434F554E542E0073645F626C6579
:10B3C4005F6366675F73657428292072657475729C
:10B3D4006E6564202573207768656E2061747465DA
:10B3E4006D7074696E6720746F2073657420424CAD
:10B3F400455F434F4D4D4F4E5F4346475F56535F46
:10B40400555549442E0073645F626C655F636667DB
:10B414005F73657428292072657475726E65642083
:10B424002573207768656E20617474656D70746926
:10B434006E6720746F2073657420424C455F4741EA
:10B444005454535F4346475F415454525F544142FE
:10B454005F53495A452E0073645F626C655F63668F
:10B46400675F73657428292072657475726E6564EC
:10B47400202573207768656E20617474656D70741F
:10B48400696E6720746F2073657420424C455F4772
:10B49400415454535F4346475F53455256494345CD
:10B4A4005F4348414E4745442E00496E73756666B6
:10B4B400696369656E742052414D20616C6C6F63E1
:10B4C4006174656420666F722074686520536F66CA
:10B4D400744465766963652E004368616E67652010
:10B4E4007468652052414D207374617274206C6FCE
:10B4F400636174696F6E2066726F6D203078257891
:10B5040020746F20307825782E004D6178696D7530
:10B514006D2052414D2073697A6520666F722061F7
:10B5240070706C69636174696F6E20697320307820
:10B5340025782E0073645F626C655F656E61626C72
:10B544006528292072657475726E65642025732ED2
:10B55400006E72665F7364685F626C650000000071
:10B56400D8A5020010A60200080000006E72665FF3
:10B574007364685F736F6300D0A50200D8A50200EE
:10B584000800000043000000504F534958000000D9
:10B59400202020202020202020682828282820203F
:10B5A4002020202020202020202020202020202097
:10B5B400481010101010101010101010101010104F
:10B5C40084848484848484848484101010101010EF
:10B5D4001081818181818101010101010101010148
:10B5E40001010101010101010101011010101010FC
:10B5F4001082828282828202020202020202020219
:10B6040002020202020202020202021010101020C0
:10B6140000070320041702010857104080000000AF
:10B6240088B502008CB60200A0B7020053756E0004
:10B634004D6F6E005475650057656400546875005D
:10B644004672690053617400000000004A616E0094
:10B65400466562004D617200417072004D6179006F
:10B664004A756E004A756C00417567005365700039
:10B674004F6374004E6F7600446563000000000061
:10B68400414D00504D000000C4B70200C0B7020095
:10B69400C0B70200C0B70200C0B70200C0B70200C2
:10B6A400C0B70200C0B70200C0B70200C0B70200B2
:10B6B400FFFFFFFFFFFFFFFFFFFFFFFFFFFF000094
:10B6C40000B7020030B602003CB7020050B60200D8
:10B6D40084B60200E4B6020094B70200F0B6020099
:10B6E400256D2F25642F2579000000002561202574
:10B6F40062202565202554202559000053756E6469
:10B704006179004D6F6E646179005475657364618D
:10B7140079005765646E6573646179005468757265
:10B724007364617900467269646179005361747568
:10B7340072646179000000004A616E75617279007B
:10B744004665627275617279004D61726368004189
:10B754007072696C004D6179004A756E65004A75B6
:10B764006C79004175677573740053657074656D09
:10B77400626572004F63746F626572004E6F766526
:10B784006D62657200446563656D626572000000F8
:10B7940025483A254D3A255300000000C9A302006C
:10B7A400E5A30200F1A3020049A4020031A40200AF
:10B7B4003DA40200FDA302000DA40200000000004D
:02B7C4002E0055
:10B7C80000000000FF0000000090D0030700030005
:10B7D800F17F0200662A00201F000000852A002051
:10B7E8001F000000FF00FFFF000000000000000035
:10B7F800000000000000000000000000FC22002003
:10B8080000000000D02A00200100040024B6020035
:10B8180024B6020024B6020024B6020024B60200B0
:040000032000637501
:00000001FF
