:020000022000DC
:1060000000000120756302005D6302005F6302000F
:106010006163020063630200656302000000000028
:1060200000000000000000000000000067630200A4
:1060300069630200000000006B6302006D630200F0
:106040001D9902006F630200659D02006F630200EC
:106050006F6302006F630200ED9B02006F6302003A
:106060006F6302006F6302006F6302006F630200E0
:106070006F6302006F6302006F6302006F630200D0
:106080006F630200497102006F6302006F630200D8
:10609000E57102006F630200090403006F630200F0
:1060A0006F6302006F6302006F6302006F630200A0
:1060B0006F6302006F630200000000000000000038
:1060C0006F6302006F6302006F6302006F63020080
:1060D0006F6302006F6302006F6302000000000044
:1060E00000000000000000000000000000000000B0
:1060F00000000000000000000000000000000000A0
:10610000000000000000000000000000000000008F
:10611000000000000000000000000000000000007F
:10612000000000000000000000000000000000006F
:10613000000000000000000000000000000000005F
:10614000000000000000000000000000000000004F
:10615000000000000000000000000000000000003F
:10616000000000000000000000000000000000002F
:10617000000000000000000000000000000000001F
:10618000000000000000000000000000000000000F
:1061900000000000000000000000000000000000FF
:1061A00000000000000000000000000000000000EF
:1061B00000000000000000000000000000000000DF
:1061C00000000000000000000000000000000000CF
:1061D00000000000000000000000000000000000BF
:1061E00000000000000000000000000000000000AF
:1061F000000000000000000000000000000000009F
:10620000354936480A1A02D0072291438D4634494F
:1062100034480A1A06D00722914381F309880222E2
:1062200082F3148830483149314A00F044F831484B
:106230003149324A00F03FF831483249324A00F0E1
:106240003AF832483249334A00F035F83248334997
:10625000334A00F030F833483349344A00F02BF821
:1062600033483449344A00F026F83448344900228F
:1062700000F02CF833483449002200F027F8334866
:106280003349091A082902DB002202604160314AC1
:1062900090471F481F49884205D00268043003B464
:1062A000904703BCF7E700208646EC46002000211B
:1062B000294A9047FEE7884207D0521A05D0037852
:1062C00001300B700131013AF9D17047884202D098
:1062D00002700130FAE770470000012000E0002062
:1062E0000000012000000120FC3303002C220020CC
:1062F00048250020D4630200D4630200DE090300B5
:10630000FC3303002C2200202C220020680B030009
:10631000680B0300680B0300680B0300680B0300A5
:10632000680B0300680B0300680B0300FA330300DB
:106330001837030048250020482500204825002064
:10634000AC3A0020AC3A0020AC3A0020AC3A002035
:10635000AC5A00209D630200D1B20200FEE7FEE7C6
:10636000FEE7FEE7FEE7FEE7FEE7FEE7FEE7FEE705
:10637000704700BF1048804710484FF0070188431E
:1063800085460F4880470F48016841F4700101605D
:10639000BFF34F8FBFF36F8FFFF732BF0A480B4930
:1063A0000B4A884207D0521A05D0037801300B708F
:1063B0000131013AF9D170477163020000000120F8
:1063C0003993020088ED00E0540B030018220020EE
:0463D0002C2200205B
:1063D400F0B595B01D46164608460C4602F0CCFEB4
:1063E4001A9B0D93CDE9086500252B46082205A9C3
:1063F40020460A958DF82C500C9502F0D9FE079B87
:106404000293069B03939DF814308DF8115003F00A
:106414000302012A1DD1BDF81420059DC3F3C20354
:10642400C2F383168DF81030B20008230EA920465B
:1064340002F0BEFEC5F3952508AB0093324602ABCD
:106444000EA9284600F0F0FB204602F099FE15B094
:10645400F0BD022AF8D1BDF81650C3F3C203C5F348
:1064640089158DF810300827082D2E4628BF0826D8
:106474003B4632460EA9204602F09AFEAD1B08ABFD
:1064840002AA31460EA8374400F032FC002DEBD1AD
:10649400DAE70000014B01221A70704789250020B9
:1064A4007047000070B50E4D06460FCD88B06C469F
:1064B4000FC495E80F00002E84E80F00094A0A482B
:1064C4004FF0060308BF00226946009303F0BEF9AB
:1064D40008B100F08BFD054B1E7008B070BD00BF05
:1064E400680B0300996402002C2200204825002038
:1064F40007B5044B0093044A4023FFF769FF03B038
:106504005DF804FB116502004925002038B50D48EB
:106514000D4C0E4D002323700378EB5CD2B263B1B3
:10652400043004F05FF808B100F060FD084B1A78FD
:1065340012B12378002BFBD038BD0C3003F04AFE97
:10654400F1E700BF2C22002089250020882E00209E
:106554004825002008B50848084A0378D35C3BB1B5
:10656400043003F0D1FFBDE808400020FFF79ABFD4
:106574000C3003F0C1FDF6E72C220020882E002009
:106584000120FFF78FBF000008B5FFF7F9FF0448AB
:10659400042100F0B3FA034B01225A7108BD00BF75
:1065A400440B030040220020037813F0040216D0A9
:1065B40003F00303012B03D0022B09D00120704701
:1065C4000A6800880232C0F3831002440A60F5E7C7
:1065D4000B684288023303EB92130B60EEE710461C
:1065E400704700002DE9F04FDFF830A187B00F4667
:1065F40000230446861C0DF1070015468DF807306C
:1066040000F0E4FFDAF800103960DAE901321344EB
:1066140001335B1A0AF21C470AF583690AF214482B
:10662400B3421CD30020002D73D004F00F039B0150
:1066340043F0050363F30F00DAF80020DAF80830BA
:106644001340033332444AF823009DF80700CAF884
:10665400002000F0DFFF012007B0BDE8F08F01212A
:10666400384601F0F4FF484602F00CF8404602F0C8
:1066740009F8DAF80400DAF808B0029000EA0B002E
:1066840003300AEB800002A9FFF78EFF029B50BB88
:106694000BEA03020AEB820203F1020CD2680392B2
:1066A400013303EA0B0B0AEB8B0B02F00302012A02
:1066B400DBF80C10CDF808C023D0022A16D083468C
:1066C400404601F0E2FF10B1029BCAF8043059467B
:1066D400384601F0BCFFDAE901231344DAF800205C
:1066E40001339B1A9CE70BEA0300C9E7BDF80E309F
:1066F400C3F3891303334FEA114B0CEB9303029357
:10670400DEE7BDF80C30C3F383134FEA114B634447
:10671400F5E7A40544F006008EE700BF5C260020E0
:106724000B4B0C48FF2210B59A600022C3F81824C2
:10673400C3E90022C3F8142483F8202402F0D5FC12
:10674400044610B9044802F07DFD204610BD00BF88
:106754005C260020700A0300BC0B030030B50A4C11
:1067640071B10A4A0A49121BD20800239A4201D184
:10677400002030BD31F82350854202D00133F5E7C3
:10678400034654F83300F4E7840A0300440B03007F
:106794002C220020094B013903EBC000032909D83E
:1067A400DFE801F00A02040604207047007970470C
:1067B400407970470020704702207047840A030024
:1067C400034BD3E90030C31A58425841704700BF05
:1067D4005C2600202DE9F04387B0FFF7F1FF064661
:1067E400002840F0FE80804CC4F81804BFF34F8F9B
:1067F4006368A56802932B40033304EB830002A96A
:10680400FFF7D2FE029B18B1D4F81824002A62D0F4
:1068140005EA0302991C013304EB82022B4004EBCA
:106824008303D268DB68049302F00303022B039210
:10683400029163D1BDF80E306C48C3F38917502F11
:10684400B84628BF4FF0500808F1080168F38F13C9
:10685400C1F30901ADF80E3002F05FFC06460028D2
:1068640000F0AA8002F088FC0023082203A9304625
:1068740002F094FC029925EA01020132B8EB820F7E
:106884004FEA820333D95FFA88F863B32940DDB253
:10689400A8EB050803315FFA88F9A846544D04EBC8
:1068A400810108234246304602F078FC3DB108F1EC
:1068B4000803DBB24A462946304602F06FFC029BCD
:1068C400033703EB97070297D4F81834002B4BD106
:1068D400D4F810545BE0226893428CD36260304653
:1068E40007B0BDE8F08342491D469946D9E72940DF
:1068F40003310823424604EB8101DDE7012B5BD120
:10690400BDF80C303948C3F38311062928BF06218A
:1069140061F38913023101F00F018900ADF80C30E5
:1069240002F0FBFB0646002846D002F025FC0023BB
:10693400082203A9304602F031FC0027BDF80C20E0
:10694400C2F38312BB00974203F10803BCD202993D
:106954004A1C29400331029204EB8101042230468F
:1069640002F01CFC0137E9E7304602F009FCFFF7AE
:1069740027FF80F00100C6B2B1E7EB685B7923B171
:106984002B6831461B6828469847EB681D68002D24
:10699400F3D1304602F0F4FB0DF107008DF80750F7
:1069A40000F014FED4F818340BB9029B63609DF810
:1069B400070000F02FFEDAE7D4F8104454B90D4B69
:1069C4000D480E49C01AC008000440F0020000F04F
:1069D40063F8CCE7236820469B689847E3681C6803
:1069E400ECE700267BE700BF5C260020700A03006A
:1069F40068260020840A0300AC0A0300A50B0300E8
:106A04002DE9F74F224E04460F46924601A9012272
:106A14001846D6F808909B46FFF7E4FD20B3019D85
:106A24004FF00008AA1CD84508EB020126D11948EA
:106A3400002101F0C5FD80F31000000440EA144079
:106A4400E4006B1C04F0380403EA090305EA0905B1
:106A540044F0010406EB8303033544EA881444EA52
:106A64008724D86046F8254096F820341BB1FFF7F8
:106A7400B1FE0028FBD103B0BDE8F08F09EA0101A3
:106A840006EB81015AF82830CB6008F10108CAE707
:106A94005C260020782A002000231A46FFF7B0BFA6
:106AA40007B50123019201AAFFF7AAFF03B05DF81D
:106AB40004FB07B5CDE9002302236A46FFF7A0FFD4
:106AC40003B05DF804FB1FB5CDE90123069B0393D6
:106AD40001AA0323FFF794FF05B05DF804FB1FB57B
:106AE400CDE90023069B0293079B03936A46042384
:106AF400FFF786FF05B05DF804FB000030B50F4CCE
:106B0400D4F8102403460020114631B9D96808711D
:106B14004AB9C4F810340A6030BDC9680D79854299
:106B240006D00968F1E7D26814680C601360F3E7D3
:106B340001300A28E8D14FF0FF30EDE75C26002051
:106B440038B5084B0125D3F8104483F8205404B910
:106B540038BDE3685D71236820465B689847E36845
:106B64001C68F4E75C26002030B5C38885B0044671
:106B74000D4633B1144A00921449154A284601F0CF
:106B8400E7FD217A05291DD0637A4BB1A088FFF770
:106B940001FE104B104953F82020284601F0D8FD7F
:106BA400227A0E4BA08853F8222003920021FFF78B
:106BB400D5FD039A0A490346284605B0BDE830408E
:106BC40001F0C6BD05B030BDE80B0300D00B0300D7
:106BD400C80B0300500C0300BD150300740C030024
:106BE400ED0B030007B503460846197A052911D0B1
:106BF4005B7A2BB1094A0A49019001F0A9FD019879
:106C04000849019001F0A4FD019803B05DF804EB7C
:106C140001F093BD002AF8D0F2E700BFE80B0300AF
:106C2400BD150300E50B03002DE9F04385B01F46B5
:106C34000C9D002395F80C902B7306460C46904649
:106C440029463846FFF790FFB8F1060F09D8DFE868
:106C540008F00412181F283340003146284601F07A
:106C640077FD002229463846FFF7BCFF85F80C90D3
:106C740005B0BDE8F08322683146284601F068FD7E
:106C8400EFE7D4E900233146284601F061FDE8E747
:106C9400A36800933146D4E90023284601F058FD47
:106CA400DFE7E3680193A36800933146D4E9002346
:106CB400284601F04DFDD4E723690293E36801936C
:106CC400A36800933146D4E90023284601F040FD2F
:106CD400C7E76369039323690293E3680193A36895
:106CE40000933146D4E90023284601F031FDB8E78A
:106CF40008292DE9F74F80460E4617461C463DD815
:106D040000251B7B2573214610460193FFF72CFFBA
:106D1400DFF88CA0DFF88CB0AE4232D918F8052029
:106D24005946204601F014FD0135082DF4D11B49C4
:106D3400DFF874A0DFF874B0204601F009FD4FF0CD
:106D440000094E4524D918F809507E2D1ED828462E
:106D540009F04EFD002814BF2A462E22594620462B
:106D640001F0F6FC09F10109B9F1080FE9D101229A
:106D740021463846FFF736FF019B237303B0BDE875
:106D8400F08F5146204601F0E3FCCDE72E22E5E7E3
:106D94005146204601F0DCFCE4E700BF010C03008F
:106DA400FD0B0300F70B0300FF0B03006A1703003E
:106DB4002DE9F84F2F4F304E4FF000082F4B1B7822
:106DC4005FFA88F5AB4201D8BDE8F88FD7F8009098
:106DD40019F835000124A0F12002C0F1200304FABF
:106DE40002F224FA03F31343D6E9001204FA00FC76
:106DF40001EA0C0B02EA030E5BEA0E0E09EBC50A6C
:106E040035D021EA0C0122EA0303C6E9001302F09B
:106E1400E1FE024619F83500194DA0F12003C0F136
:106E2400200124FA01F104FA03F30B43D5E900C16C
:106E3400C0F120050B40A0F1200122FA05F58440A1
:106E440002FA01F1294304EA0C0402FA00F58B4228
:106E540008BFAC420BD1DAF8043043B19AF8011000
:106E64004C1E614261418D1A69426941984708F19B
:106E74000108A3E7502B0020482B0020182B0020EA
:106E8400402B0020F8B507461E4800F08FFBB8BB26
:106E940001251D4EA7F12004C7F1200325FA03F3B1
:106EA40005FA04F41C43D6E90023BD4002EA0500B8
:106EB40003EA040101431DD1384602F08BFE134B53
:106EC400D3E9001288B129432243C3E90012D6E969
:106ED40000232A432343C6E900230D4B09481968BC
:106EE4000022BDE8F84000F019BB21EA050122EABE
:106EF4000402EAE722EA050223EA0403C6E90023BE
:106F0400F8BD00BF202B0020482B0020402B002080
:106F14001C2B0020042A2DE9F34105460C46164695
:106F24003BD902F08FFDE8B11D4B1E491D601E4B7D
:106F3400DFF888801C701D4B00221E600023C1E90D
:106F440000231B49C1E90023013CE4B200260327C6
:106F5400FF2C0ED1174A1848002102B0BDE8F041B9
:106F640000F0CABA02F03EFD0028DDD002B0BDE850
:106F7400F08105EBC40315F834009B788DF80660A6
:106F8400424601A98DF804708DF8053002F064FDC5
:106F9400013CE4B20028DBD0E8E70720E6E700BFC5
:106FA400502B0020402B0020182B00201C2B0020ED
:106FB400482B0020B56D0200880C0300896E020086
:106FC40070B5084D084E00242B789C4201D3002054
:106FD40070BD3368012113F8340002F0B5FD0134AB
:106FE400F2E700BF182B0020502B00201FB5002112
:106FF400039001AA44F20100CDE9011100F004F864
:1070040005B05DF804FB000038B572B6FFF798FDD3
:10701400FFF7E0FB0028FBD1104B114C114D124936
:10702400E41AE408240444F00100FFF735FDD5F820
:10703400F030DB0700D500BE0C4944F00200FFF736
:107044002BFDBFF34F8FEA68094B02F4E062134350
:10705400EB60BFF34F8F00BFFDE700BF840A03005E
:10706400AC0A030000ED00E08C0C0300980C030054
:107074000400FA05094B5A7899780132D2B2914248
:1070840008BF0022197891421FBF02705878182255
:1070940002FB003014BF043000207047542B002042
:1070A40073B5054600240DF107000E468DF8074020
:1070B40000F08CFA0DF10600FFF7DCFF90B10670CA
:1070C400094B9DF8062045605A709DF8070000F0B2
:1070D400A1FA24B9054B4FF48012C3F800212046CD
:1070E40002B070BD0424F0E7542B002000E100E05E
:1070F400024B4FF43C6043F001031847B00C03000B
:1071040038B50C4B0C4C4FF40032C3F880200125E9
:107114004FF48033C4F84833C4F808336560FFF78C
:10712400E7FF064BA56000241C60FFF7E1FF044B5A
:107134001C7038BD00E100E000100140702C0020FC
:10714400612C0020F8B51F4B1F491B680025C1F8AE
:107154004051C1F84451C1F84851C1F84C51C1F8EB
:107164000051C1F804514BB3D1F8044517490968DB
:10717400641A24F07F442F461A68A24209D8A41A3C
:1071840015441A7CDE691AB1D3E905201F749047AF
:10719400AEB90F4A0F4B11781B788B4205D10133DE
:1071A400DBB2022B08BF0023137012780A4B43F89A
:1071B40022500A4B4FF48012C3F80021F8BD334625
:1071C400DAE700BF742C002000100140702C00206E
:1071D4006D2C00206C2C0020642C002000E100E0C9
:1071E4002DE9F04FA14AA24913780978A14D99429B
:1071F40085B03CD00133DBB2022B08BF00231370EF
:107204009D4912789D4B0F6853F822003B1823F0D8
:107214007F4300220B602B6816461446944613B92C
:1072240042B12B6006E0196881420ED902B12B608D
:10723400091A196001272B68DFF848A201934FF05F
:107244000008BEB9DFF844B260E0401A0C44D968C3
:10725400D3F81CE0C3F800C031B13A1922F07F42E0
:10726400C3E90121DE611E4673460122D7E70026E9
:107274003746E0E73446F6697F4B60681B68DFF801
:1072840010C2A168C21A22F07F42624500F2A680B1
:107294000A442260012222742A680023C4E90133CB
:1072A400E361002A40F0A3802C60CAE79BF8021037
:1072B4005A1CD2B291428BF8002004BF00228BF8F2
:1072C4000020182202FB03B32A6819799C6802295A
:1072D40075D003297FD0012918D1207CB0B9D3E916
:1072E4000312A2605A69E2609A69654BA2611A7836
:1072F400002A18BF01466160BEE78C4200F094800A
:107304008946C9690029F8D1002323749BF8003009
:107314009BF801209A42C9D12B68B8F1000F04D11F
:10732400019A9A4201D1002F43D0002B79D0D3F88F
:1073340000A0544D504BD5F804751C68DFF85481F7
:107344003E1B98F8003026F07F4603369BB94FF475
:107354008033C5F84433C5F804334B4B4FF4003243
:107364004FF00109C3F880211A60C5F80090FFF7B7
:10737400BFFE88F80090B2452CBF5444A41924F0F1
:107384007F44C5F84045D5F80435DB1B23F07F4323
:10739400E41B033324F07F44A3420AD9D5F804350F
:1073A400C5F84035FFF7A4FE374B4FF40032C3F85D
:1073B4000021334B00221A7005B0BDE8F08F11464E
:1073C40091469FE71174D2690123002AFAD1002B58
:1073D4009CD02A609AE700231946F6E71B1A23F08B
:1073E4007F438B4234BFCB1A0023236052E72168CA
:1073F4001368994213D85B1A1360E26154E7091ABF
:10740400D8691A4638B1034618688842F7D3401A37
:107414001860184613462160E061DC6111E71346E9
:10742400F2E7FFF76DFEC4E74C4511D1D3692B6039
:1074340073B9DFF844E00120CDE90212CAF808006C
:10744400CEF800300E4B1870FFF752FEDDE9021241
:107454000B68C969C9F81C1011B1086803440B60B2
:107464002B68934218BF4FF001084DE76C2C0020A5
:107474006D2C0020742C0020702C0020642C002023
:10748400602C00200010014000E100E0542B00209B
:10749400FEFF7F00612C002008B5FFF731FE104B82
:1074A40000200B2218809A700E4B18600E4B187037
:1074B4000E4B18700E4B4FF48012C021C3F880217C
:1074C40083F814131A6002F18042A2F56F22C2F805
:1074D400080583F81113074BD2F804251A6008BD78
:1074E400542B0020742C00206C2C00206D2C0020C8
:1074F40000E100E0702C0020074B9B784BB132B1C7
:1075040028B10368187C20B959745A617047072060
:1075140070470820704700BF542B00202DE9F74323
:10752400DFF8848098F8023005460E461746ABB360
:10753400A0B3042930D9436983B3437C0024012BCD
:107544000DF107000CBF8946A1468DF8074000F0F5
:107554003DF80DF10600FFF78DFDD8B1012303704E
:107564000F4B4560D3F80435C0E90497C0E90236EF
:107574009DF8063088F801309DF8070000F04AF8BD
:1075840024B9084B4FF48012C3F80021204603B0FD
:10759400BDE8F0830424EFE70724F7E70824F5E7C0
:1075A4000010014000E100E0542B0020064A9278CC
:1075B4003AB130B1426922B1002202740221FFF7CC
:1075C4006FBD0820704700BF542B002070B5EFF347
:1075D400108672B60C4A946801239CB993600B4BD5
:1075E4000B4DD3F8801029401160C3F88050D3F8B4
:1075F400841051604FF0FF32C3F88420047006B940
:1076040062B670BD0370FAE7782C002000E100E058
:10761400FC06FFBD084B9A6810B55AB150B9EFF398
:10762400108172B6054A1C6814605C6854609860E6
:1076340001B962B610BD00BF782C002000E100E063
:1076440070B5064D0646002455F8043B0BB1304690
:1076540098470134042CF7D170BD00BF902C002052
:107664004388033300EB8303994209D382884FF69E
:10767400FF739A4206D00088B0FA80F04009704740
:107684000220704701207047033080B240F2FD337E
:10769400984230B51FD8124B1A783AB91C895D89C3
:1076A4002C440444A4B2B4F5806F0AD31A7DA2B961
:1076B4009A8BDC8B2244024492B2B2F5806F0CD2D6
:1076C40001220A801446142202FB04335A8910440E
:1076D4005881002030BD0920FCE70720FAE700BFED
:1076E400C42C00200B4A0C495388142000FB0311BE
:1076F400CB6833B90420496810700122074801F0AF
:10770400BDBA07490523137002238B80012209683F
:107714000023F3E7A82C0020C42C0020182200200A
:107724008C2D002007B5002305490093054A0968FC
:107734000548082301F008FA03B05DF804FB00BF14
:107744008C2D0020C40C03001822002007B5002350
:1077540001460093034A0448082301F0F5F903B0F5
:107764005DF804FBBC0C03001822002013B50023B1
:107774000C4600930146084A0848042301F0E4F942
:1077840038B9074B142101FB043101230B7402B0F7
:1077940010BD0E20FBE700BFB80C03001822002028
:1077A400C42C002037B50A480A4B42689C881968E3
:1077B40053880325033305709BB2002000909B007F
:1077C40001EB8401044801F0BFF903B030BD00BFF0
:1077D400A82C00208C2D00201822002010B5014672
:1077E400044800F021FE1C220446002109F06BF835
:1077F400204610BD782D002068B10268084B9A42DB
:1078040009D14068074B984207D00133984214BF0E
:10781400032001207047032070470020704700BFF9
:10782400DEC0ADDEFE011EF12DE9F0410D4602235E
:10783400154F2B80164600F5805100F108044FF0D7
:1078440001088C420ED2236801330BD02046FFF787
:1078540007FF48B10EB186F80080022809D14FF421
:1078640080632B80BDE8F081A3683A68934200D915
:107874003B602B886288033313442B806388033373
:1078840004EB8304DDE700BFBC2C002038B5144BA7
:1078940014220D4602FB00302B68446804F5805125
:1078A400A3B15C88033403EB84048C4215D22368AF
:1078B400013312D02046FFF7D3FE012808D0022856
:1078C4000BD00028F1D12C60012038BD0834ECE73E
:1078D4006388033304EB8304E7E70020F5E700BF84
:1078E400C42C0020426873B504460D4662B3234B92
:1078F400D9688A4228D31B699A4225D812F0030317
:1079040022D11F490089098988421DD120689168C4
:10791400884219D11B4841688A4203D901F5805134
:107924008A420DD381698A420CD901F580518A4279
:1079340008D201222A80B3FA83F0400902B070BD54
:107944001A46F7E70A23F6E700262E8001962888D0
:1079540001A9FFF79BFF30B92B8801339BB2012BA0
:107964002B80F3D9EAE7019B226899689142EED112
:107974006360034B1B892381E0E700BF18220020CA
:10798400A82C0020C42C00202DE9F8431C461C4BD5
:107994001B7806460F4615466BB372B36CB3DFF81B
:1079A40068804FF01409A388012B01D90A2020E034
:1079B40009FB03F318F803302BB9A0882146FFF71D
:1079C40065FF20B92060A3880133A380EBE7236817
:1079D4001EB1998832889142EFD11FB119883A8833
:1079E4009142EAD19A68C5E90023064B1B892B8191
:1079F4000020BDE8F8830220FBE70520F9E700BF7B
:107A0400A02C0020A82C0020C42C002008B5074B73
:107A14005888191DFFF73AFF18B1BDE80840FFF771
:107A2400C1BEBDE80840FFF75DBE00BFA82C002022
:107A34002DE9F0479F4FDFF8A08288B006463B68E7
:107A440023B99D48414600F029FD38603D682978F6
:107A54004B1E052B07D8DFE813F01F0077007700D3
:107A6400070107015B010F241422002103A808F079
:107A74002AFF41F61D539C4208BF00243B6804942E
:107A84001A78023A042A00F2F981DFE812F0DA01E6
:107A9400E60108021002170226B1884B00225A6040
:107AA4000124E1E72B79032B1CD8DFE803F014024F
:107AB4002934834A1378022B19D0137D022B4FF0FB
:107AC400010316D114214B43D1180020D054486827
:107AD400FFF73CFE03E001232B71FFF723FE002890
:107AE40000F0BD80754B00225A600E24BCE70023D1
:107AF400E8E7724A13700023536041F61D54B3E75C
:107B040070497148002302222B718A80096801227E
:107B140001F0B4F8E3E76B4C00262E712068FFF700
:107B240015FE6A4BDFF898C15B882568142253431D
:107B34000CEB03020CF8036051685560A5881581AD
:107B440002222160A280CAE7B5F814A0AA7DDFF85A
:107B54007091AEB1022AEB8806D9142101FB0A9177
:107B6400DA1C088902440A81142202FB0A99C3F52B
:107B74007F43B9F80A20FD331344A9F80A308FE78C
:107B8400142303FB0A9318895C6804EB8004062A17
:107B940068D8DFE802F0274D35431D59040041F64B
:107BA4001D54AA7DEB88022A06D9142101FB0A91EF
:107BB400DA1C088902440A81142202FB0A99C3F5DB
:107BC4007F43B9F80A20FD331344A9F80A304BE780
:107BD4003F48404900234360AB690360FFF782FEDE
:107BE400002859D00223AB75002300930423EA181C
:107BF4002146354800F0A8FF002830D00E24D0E7F5
:107C04002B69002B14BF03230123AB7500230093BE
:107C140005F10C02042304F10801EAE70123AB7522
:107C24000022EB8800922A699B0004F10C01E0E732
:107C340003290CBF05230623AB75002300930423FB
:107C440005F10802E118D4E70623AB75214B198826
:107C54001F4B5868FFF78AFD04460028A1D108B0DD
:107C6400BDE8F0870F249CE7002E7FF419AF2B7931
:107C7400012B33D0022B3FF440AF002B7FF4F3AE43
:107C840002232B710DF10A01EB68039303A8CDE9DC
:107C94000466FFF727FE08B90A24E5E60498BDF850
:107CA4000A108388EB8003882B81FFF75FFD04466D
:107CB40027E000BFC02C0020782D0020A02C00203D
:107CC400C42C00208C2D002018220020A82C002079
:107CD400842C0020982D0020B82C0020DFF8F89187
:107CE40003AA4B463146A81DFFF74EFE044660B971
:107CF400B9F804100498FFF739FD04460A2C3FF440
:107D0400FCAE002C7FF4B0AEA9E7C9E90066F5E744
:107D1400002E7FF4C5AE6B4B1A7BBAB11E731A7872
:107D2400013A062A3FF69FAE01A151F822F000BFA6
:107D3400DB7D0200017E02001F7E0200257E020020
:107D44006B7A02002B7E02003D7E02001A78072A1D
:107D5400E5D801A151F822F07D7D0200237D0200C7
:107D6400237D0200A37D0200B77D0200D77D0200BF
:107D7400D77D02009F7D02001A89534901321A817E
:107D840000225A801A730A78B2FA82F252099A725D
:107D94000A7DB2FA82F25209DA72012207E04B49F3
:107DA40058688A884088033202448A8002221A7002
:107DB400B5E75C88444A4549142505FB0422086854
:107DC400546850608888108102228A800C600622E0
:107DD400EDE70722EBE79A7A32B9DA7A8AB9002218
:107DE4001A705A805A6088E6374900229A72CA6823
:107DF400002AF2D1097C0029EFD05A80FFF706FE51
:107E040055E70022DA72304A116A0029E7D192F864
:107E14002420002AE3D00122EFE7FFF7C3FC46E762
:107E2400FFF760FC43E75A88274B142101FB023318
:107E34005868FFF78BFC3AE700225A60FFF772FCA0
:107E440035E701228DF80C201A89ADF818209A889C
:107E5400DB68ADF81A20059310E002228DF80C209F
:107E64001A89ADF818209A88ADF81A20DA689B7D33
:107E740005929A1F534253418DF81C3003A8FFF713
:107E8400DFFB0026414612483E6000F032FB1148F9
:107E9400012100F0E8FB00287FF4D1ADDFE60322E6
:107EA4008DF80C20DA88ADF818201A89D0E704225E
:107EB4008DF80C20DB88ADF81830DFE705238DF84A
:107EC4000C30DBE7A82C0020C42C00208C2D0020D3
:107ED400782D0020882D00209C2D00204068FFF77D
:107EE400A7BD000008B50548012100F0A4FB18B99E
:107EF400BDE80840FFF79CBD08BD00BF882D0020E9
:107F04002DE9F3419846354B1B7806460D46002B68
:107F14005BD000295BD009884FF6FF73994258D093
:107F24006B88002B55D06B689B0754D14AB92F89B5
:107F34000DF102013846FFF7A7FB30B102B0BDE8EE
:107F4400F08113885788ADF8023001A8FFF746FC8A
:107F5400044658B9BDF80220214B142101FB023319
:107F640058890338C01B58810820E7E780F800804F
:107F740000238375BDF8023083826B68036101219D
:107F8400184800F064FB2B882381B8F1030F6B8839
:107F9400A38004BF0423A3754FF0000508BF336812
:107FA400E06008BFA3611048E780658101A900F083
:107FB40065FA36B1E36833600C4B75601B89B572A2
:107FC4003381FFF78FFF0020B8E70220B6E70520D2
:107FD400B4E70420B2E70320B0E700BFA02C0020E0
:107FE400C42C0020BC2C0020782D0020A82C0020BC
:107FF40008B5034607480268042A08D00168064AFF
:1080040042F82130012100F022FB002008BD0C20A1
:10801400FCE700BF942D0020902C00202DE9F04FA8
:1080240089B01422002103A808F04DFC754B1B787D
:1080340003F0FF0200923BB103A8FFF701FB002607
:10804400304609B0BDE8F08F6E4B181D00F017FBE9
:108054000028F4D1009BDFF8C4B1D3F8F83F5C1CCE
:1080640008BF4FF010234FF0805208BF5B691169BD
:108074005269581C08BF02FB01F3CBF81030624967
:10808400A3F5405300225846CBF80C3000F02AFDEB
:1080940006460028D4D11C235C495D48DFF880A142
:1080A400DFF880818C2200F08AF90323B14635463B
:1080B40001933446DBF80C704F443846FFF79CFBC1
:1080C400012839464AD0032815D0002835D1142177
:1080D400614308EB010208F80100576001F1100246
:1080E4000831424441443846FFF79EFB45F00205FF
:1080F4000134A4B221E007F580520868013074D13C
:1081040004319142F9D1DAF800203AB9022201236C
:10811400CAF80070AAF8042000930CE01422624309
:10812400022008EB020108F802003A4A4F6054802A
:1081340001340881A4B245F0010509F58059B9F567
:10814400405FB7D1019B012B98BF0025EDB2022DF2
:1081540002D0062D20D045BB0B2671E7009B63B1EE
:108164001422624308EB0201022008F802000134E1
:10817400DAF800204A600881A4B200222649CAF82D
:1081840000703846FFF750FBBAF80420022A0CBFEF
:10819400042208221543D0E71A4A0123137003A8C6
:1081A40000235360FFF74CFA4AE702A8FFF716FBD7
:1081B400C8B10123013D03700A2D09D8DFE805F099
:1081C40006080608070807080F110F0000230371AB
:1081D40002A90F4800F052F9FFF784FE30E70323A9
:1081E400F5E70223F3E708262AE7019B5A1E93B218
:1081F4001422624308EB020101934F60032108F843
:10820400021075E7A02C0020B80E0300EC2C00200F
:10821400782D0020A82C0020902D0020182200206A
:108224008C2D0020C42C002073B50D460446C8B123
:10823400C1B10DF10601FFF755FBA8B1BDF8063039
:108244000A486668142202FB030001210C3000F086
:10825400FEF963682E600C336B600123A372002067
:1082640002B070BD0520FBE70A20F9E7C42C00200A
:1082740013B50446A8B10DF10601FFF733FB90B125
:10828400BDF806200A4B142101FB0233DA6862B1FF
:10829400A27A52B1DA680020013ADA60A07202B020
:1082A40010BD0520FBE70A20F9E70620F7E700BF29
:1082B400C42C002002230022FFF722BE18B103239E
:1082C4000022FFF71DBE052070470000104B1B78ED
:1082D40013B50446ABB14FF6FF73984213D001A80F
:1082E400FFF77CFA88B10523037001230371C4806E
:1082F40001A9084800F0C2F8FFF7F4FD002002B01D
:1083040010BD0220FBE70420F9E70820F7E700BFCF
:10831400A02C0020782D00200E4B1B7807B5A3B1AC
:1083240001A8FFF75BFA90B10623037001A90A487C
:1083340000F0A4F8094B1A780AB101221A73FFF766
:10834400D1FD002003B05DF804FB0220FAE7082009
:10835400F8E700BFA02C0020782D0020A82C0020D6
:1083640007B5ADF80600ADF804100DF1060001A93B
:10837400FFF70AFB03B05DF804FB07B51346ADF83D
:1083840006000A4600200DF10601FFF7FDFA03B0CE
:108394005DF804FB07B51346ADF806000A460DF177
:1083A40006000021FFF7F0FA03B05DF804FB20B1EA
:1083B40019B103680B60002070470520704710B5A1
:1083C40061B1B2FBF3F403FB1424A4B244B9C0E9D1
:1083D400001484608281C381204610BD0E20FCE716
:1083E4000920FAE782B050E8022FC188B2EB324F7D
:1083F4004FF0000317BF92B241EA014142EA014142
:1084040004E04268B2EB324F08BF012340E8021295
:10841400002AE8D18DF807309DF80730002B0CBFF7
:108424001120002002B0704737B550E8013F9DB2DB
:10843400C48925448489A54228BF2D1B0489A542EB
:1084440002BFBFF32F8F002207E0C5EA030540E80F
:108454000154002CE9D14FF001028DF8032001935F
:10846400019A0A609DF8031001F0FF0321B100682E
:1084740010FA82F003B030BD1846FBE70A884B8837
:108484009A4209D150E8012FC2EA024240E801238E
:10849400002BF7D1012070470020704737B550E812
:1084A400023F1FFAA3F5C488A54202BFBFF32F8F72
:1084B40000220DE0C48925448489A54228BF2D1BD0
:1084C400C3EA054540E80254002CE8D14FF001020C
:1084D4008DF803200193019A0A609DF8031001F0BE
:1084E400FF0321B1006800EB124003B030BD184611
:1084F400FBE70A884B889A4209D150E8022FC2EA66
:10850400224240E80223002BF7D1012070470020CB
:10851400704701F01F024B090121914000EB8300D9
:1085240000F065B84B0910B501F01F040121A1400A
:1085340000EB830000F04FF8E04000F0010010BDB4
:1085440001F01F0301229A404B0900EB8300D14341
:1085540000F065B84B0901F01F0150F82300C84032
:1085640000F0010070472DE9F0474F1E7F09804657
:108574000E460137002558F8254008EB8509E443E9
:1085840094FAA4F4B4FA84F44FEA451A202C06D1E0
:108594000135AF42EFD834462046BDE8F087544455
:1085A400A642F5D921464046FFF7BCFF0028F3D088
:1085B400D9F80040E44394FAA4F4B4FA84F4E5E767
:1085C40010B5034653E8000F0A4643E8002494F02C
:1085D400000FF7D110BD10B5034653E8000F40EA71
:1085E400010243E8002494F0000FF6D110BD10B549
:1085F400034653E8002F42EA010043E8000494F0E4
:10860400000FF6D110BD10B5034653E8000F00EA81
:10861400010243E8002494F0000FF6D110BD10B518
:10862400034653E8002F02EA010043E8000494F0F3
:10863400000FF6D110BD10B5034653E8000F00EB50
:10864400010243E8002494F0000FF6D110BD10B5E8
:10865400034653E8002F02EB010043E8000494F0C2
:10866400000FF6D110BD10B5034653E8002FA2EB5E
:10867400010043E8000494F0000FF6D110BD01217D
:10868400FFF7A9BF0121FFF7B2BF0021FFF7BBBF6E
:1086940010B590B1D0E9012301689B1ADBB20A60DE
:1086A400013BDBB2FF2B026802D10020107110BD28
:1086B40011684C1C14600B70F2E70E20F7E737B515
:1086C400054600240DF107008DF80740FEF77EFFF4
:1086D4002A686B68116899420ED9481E106011F817
:1086E400013CEC68298A01FB0344AB6811791B1A2D
:1086F400DBB2994238BF13719DF80700FEF78AFF79
:10870400204603B030BD37B5054600230DF1070000
:108714000C468DF80730FEF759FF2A681368591C78
:108724001160E968641A298AB4FBF1F41C709DF89D
:108734000700FEF76FFF03B030BD826810B5044632
:108744002AB143690168006998470023A36010BDFA
:108754000EB403B5039921B104AB01AA019300F04F
:1087640077F802B05DF804EB03B070470A2938B516
:1087740004460D4602D10D21FFF7F8FFA3682268D5
:10878400591CA160D554D4E901329A4204D320463D
:10879400BDE83840FFF7D1BF38BD00002DE9F84FE0
:1087A4009846DDE90A43154682460F460A464FF0CD
:1087B4000109AA420FD2C14538BFC14613F0010BCB
:1087C40001D16CB900240126B8F1010F1BD908F1BD
:1087D400FF386E43F8E709F10109B2FBF5F2E8E767
:1087E4009B070ED5B8F1000F0CBF30262026A145FB
:1087F400E9D2013C31465046FFF7B8FF002CF6D1D0
:10880400E0E72026F3E7B7FBF6F39D42E1D9DFF872
:108814003C80B7FBF6F3504618F8031006FB1377B9
:10882400FFF7A4FF3346AB42B6FBF5F6F1D2BBF13A
:10883400000F02D00CB1A14501D3BDE8F88F20216F
:108844005046013CFFF792FFF4E700BFCC0C030055
:108854002DE9F74F054617468846002900F03E816A
:1088640018F8011B49B92B7B002B00F037812846EF
:1088740003B0BDE8F04FFFF760BF252940F0B78093
:10888400002698F800302D2B424608F1010823D029
:10889400302B24D02B2B25D000242A2B02F10101CC
:1088A40023D13B681A1D1B683A601C440A4613789E
:1088B4002E2B26D101324FF0000A104610F8011B6E
:1088C400A1F1300CBCF1090F1DD80A2303FB0A13D4
:1088D400A3F1300A0246F0E746F00106D1E746F07C
:1088E4000206CEE746F00406CBE711F8013CA3F1FB
:1088F40030000928DBD80A2202FB0434303C0A4643
:10890400CBE74FF0000A12F8011B01F0FB006828C6
:108914009046F8D0782909D86F290CD8632962D0F9
:1089240022D8252963D0582900F0888098F800308F
:10893400002B95D197E770390829F7D801A353F88C
:1089440021F000BFBB8A0200318902003189020094
:10895400518A0200318902002F8A02003189020003
:1089640031890200418A0200642901D06929DDD1DC
:108974003A68D2F80090111D89EAE9723960A2EBD5
:10898400E9724FF0010B092A35DCD34538BFD346D1
:108994002CB1B9F1000F01DB720700D5013CB3071C
:1089A40002D5BAF1000F03D0F00701D44CBB002468
:1089B400B9F1000F2DDAC9F100092D212846FFF77E
:1089C400D5FE06F00302022A04D1BAF1000F01D148
:1089D4001CBB0024CDE9004653460A2249462846DA
:1089E400FFF7DCFEA2E73B681A1D19783A602846B7
:1089F400FFF7BCFE9AE70A230BF1010BB2FBF3F27B
:108A0400C1E7A345D4D220212846013CFFF7AEFE9E
:108A1400CCE77107D5D52B21D0E7A345DAD2302195
:108A24002846013CFFF7A2FED2E73968CDE90046AB
:108A34000A1D3A6053460A220968D0E739680A1DBC
:108A44003A60CDE9004653461022F5E73B681A1D0B
:108A54003A6016F00106D3F8009024D1B9F1000F62
:108A640003D0484607F089FF0646B4421DD809F1F1
:108A7400FF3919F8011F00293FF458AF2846FFF7C2
:108A840075FEF6E728460136FFF770FE19F8061062
:108A94000029F7D1A642BFF449AF20212846013C62
:108AA400FFF764FEF6E70026F0E720212846013CA4
:108AB400FFF75CFED9E73B681A1D3A60302128466F
:108AC4001C68FFF753FE78212846FFF74FFE00226B
:108AD4000823CDE900322146102280E703B0BDE827
:108AE400F08F00BF13B50B46114680B9104B1148E7
:108AF400114AC01A0E23C0080093104B00041049F9
:108B040040F00100FDF7DFFF0E2002B010BD4BB9AD
:108B1400074B08480B4AC01AC0080E2300930004F0
:108B2400064BECE703601B6802B0BDE81040184731
:108B3400840A0300D40A0300DC0C0300980E03002B
:108B4400E10C0300100D03002DE9F743DDF8288044
:108B540088B93E4B3E483F4AC01AC0080E243E4BDB
:108B6400009400043D4940F00100FDF7ACFF2046AD
:108B740003B0BDE8F0834AB9344B3548384AC01ACB
:108B8400C0080E24344B00940004EBE7D0F800E056
:108B9400BEF1000F09D12D4B2D48324AC01AC0082E
:108BA40008242D4B00940004DCE74BB9274B2848DC
:108BB4002D4AC01AC0080924274B00940004D1E7A9
:108BC4004568D5F80490B3FBF9F509FB15354DB1AB
:108BD4001E4B1F48254AC01AC00809241E4B009486
:108BE4000004BFE78D0709D0184B1948204AC01A62
:108BF400C0081024184B00940004B3E712F0030FCC
:108C040009D0124B12481B4AC01AC0081024124B38
:108C140000940004A6E7C568A9420DD34D1EEC18C4
:108C24000569AC4208D8CDF82880DEF80C40A4468B
:108C340003B0BDE8F0436047044B05480E4AC01A30
:108C4400C0081024044B009400048BE7840A03003A
:108C5400D40A0300DC0C0300850E0300E10C0300BE
:108C64005E0D03000A0D03001D0D0300640D0300D7
:108C74008E0D0300A60D0300C90D0300F7B580B9DE
:108C84002A4B2B482B4AC01AC0080E242A4B0094A6
:108C940000042A4940F00100FDF715FF204603B007
:108CA400F0BDD0F800C0BCF1000F09D11F4B204823
:108CB400234AC01AC00808241F4B00940004E8E7A4
:108CC4004AB91A4B1A481F4AC01AC00809241A4B39
:108CD40000940004DDE74568D5F800E00EF1FF35A7
:108CE4000D4209D0114B1248174AC01AC00810246B
:108CF400114B00940004CCE7C568A9420CD34D1E67
:108D04000EFB02540569AC4206D8DCF81040A446B8
:108D140003B0BDE8F0406047044B05480B4AC01A55
:108D2400C0081024044B00940004B2E7840A030032
:108D3400D40A0300DC0C0300720E0300E10C0300F0
:108D44000A0D03001D0D0300F00D0300160E0300B1
:108D540029DF704728DF704770B503689E6886B0C6
:108D640004460D466EB114220021684607F0ABFD9F
:108D7400A3680593237901952BB1012B0DD0684687
:108D8400B04706B070BD01238DF80030236902930B
:108D9400E368039363690493F1E702238DF80030D9
:108DA400E3681B030293F5E7084670470020704709
:108DB400024B187A003818BF01207047402E00205B
:108DC400034B187A0122B0FA80F05A7440097047B4
:108DD400402E002008B510461A4607F04BFD00202F
:108DE40008BD000008B514220021044807F06BFDFB
:108DF4000348FFF7F7FA002008BD00BF402E00200B
:108E0400302E002010B5094C094B43602046FFF773
:108E140036FC40B907F0DCFA064920741C230648E6
:108E24008C22FFF7CCFA002010BD00BF402E00209A
:108E3400AC0E0300A42D0020302E002038B5234DA5
:108E4400234C2B7A3BB923492348FFF727FB2060A7
:108E540008B9686038BD022324682B72237973B182
:108E6400012B24D020460321FFF776FF00232B7229
:108E74006B6018491848BDE83840FFF73ABBD4E99D
:108E84000523D21AB2F5805FD4E9031028BF4FF44A
:108E940080529208012A38BF012219441844FFF76E
:108EA40057FF50B11128DDD101232B72D2E7D4E949
:108EB40003031844FFF74EFFF3E72B7C002BC9D1C3
:108EC400BDE83840022000F009B800BF402E002061
:108ED400582E0020542E0020302E002038B5234C6C
:108EE400237A002B41D0022B09D1032830D0204B08
:108EF40000221B68E2601A793AB1012A22D0637C0D
:108F04007BBBBDE83840FFF799BFD3E905128D1A42
:108F1400B5F5805F94BF521902F580529A6191426F
:108F2400EDD102284FF0000308BF19462372104BFD
:108F340018BF0D211868FFF70FFF0E490E48FFF701
:108F4400D8FADCE71A6901321A615B699A42E7E7E9
:108F5400E3680133082B01D8E360D0E70023E36022
:108F6400DFE7BDE8384007F023BA38BD402E0020C3
:108F7400582E0020542E0020302E0020831E012B5A
:108F840001D8FFF7ABBF704700F0FD03012B08D1F8
:108F9400044B00225A74421E504250411874FFF789
:108FA4004DBF7047402E002010B5064C201DFFF722
:108FB40066FB28B9637C1BB9BDE81040FFF73EBFD0
:108FC40010BD00BF402E00202DE9F34180460D4620
:108FD400104801A916461F46FFF726FA0446B0B109
:108FE40018220021043007F06EFC2D0B012323719D
:108FF40001A90848C4F80080A760E5606661FFF72E
:109004003DFAFFF7D1FF002002B0BDE8F081042053
:10901400FAE700BF302E00202DE9F34180460F46C9
:109024000F4801A916461D46FFF7FEF90446A8B1EC
:1090340018220021043007F046FC089BA36001A914
:10904400C4E903670648C4F800806561FFF716FAAF
:10905400FFF7AAFF002002B0BDE8F0810420FAE780
:10906400302E00202DE9F84FB0F806A04579D2F84B
:1090740000B09DF828900AFB05F5043D88460BEBEB
:109084000301A94203F1040488BFA5EB030BB4FB5D
:10909400FAF607460AFB1644C2F800B04EB9AAEB2A
:1090A40004055D4528BF5D46BBF1000F04D1BDE852
:1090B400F88F3F68013EF1E7043408EB06003C44B6
:1090C4002A46B9F1000F0DD02146ABEB050B07F092
:1090D400D1FBDA452E443F6855464FF0000428BFC3
:1090E4005D46E1E701462046EFE7FFF7D1BAF8B560
:1090F40046790146721E0546002393422D6803D328
:109104000024A64202D8F8BD0133F6E70F682846CA
:10911400FFF7F9FA01343946F3E72DE9F843068AF3
:10912400CD1C0746FFF7CBFA043E35440446B5FB95
:10913400F6F5F0B14FF48073EDB28380C680013D43
:10914400076081464FF00008A84512D23846FFF761
:10915400B6FA064648B163790133637108F1010830
:10916400C9F8000007608146EEE72046FFF7BFFF1D
:1091740034462046BDE8F88301210430FFF767BA7E
:1091840010B5012104460430FFF76DFAC0B220B9CE
:109194002046BDE81040FFF7AABF10BD1FB50392DB
:1091A4000022009203AAFFF75DFF05B05DF804FBFF
:1091B4001FB503920122009203AAFFF753FF05B0E3
:1091C4005DF804FB41DF7047064B10B500241C70AA
:1091D400054B1C60BFF35F8F0449054800F03BF862
:1091E400204610BD642E0020682E0020E40E0300EB
:1091F4005C2E002007B500230DF107008DF8073021
:10920400FEF7E4F9F1EE103A23F09F03E1EE103A91
:10921400BFF35F8F0A4B4022C3F884219DF80700F7
:10922400FEF7F8F907F0D4F820B103B05DF804EBC9
:10923400FFF7C8BF20BF40BF20BF03B05DF804FBE9
:1092440000E100E0836800225A60C3E904229A60C6
:10925400DA601A6070470B684A684360934208BF3B
:109264000023016008BF43607047436843B102684C
:10927400916852680B449342436004BF00234360E7
:109284007047000010B50D49A1F59472914201D8C0
:1092940000200FE08C1AE30F03EBE4035B1002EBF6
:1092A400C30452F83330834205D802D204F10802D1
:1092B400ECE7606810BD2146E8E700BFE81303004F
:1092C40008B5FFF7DFFF024B002808BF184608BDAA
:1092D400AA1203004FF0704393F8E02F062A10D12E
:1092E400D3F8E42F12070CD1D3F8E80F00F0F00301
:1092F400302B08D000F0E000A0F140035842584160
:10930400704700207047012070474FF0704393F876
:10931400E02F062A0CD1D3F8E42F120708D1D3F892
:10932400E80F00F0F000A0F13003584258417047B4
:109334000020704708B5FFF7CDFF40B14FF08053D0
:10934400884AD3F82433C3F30423C2F84035FFF723
:10935400DCFF10B1844B854A5A67FFF7BBFF48B165
:109364004FF080534FF08042D3F84432C3F342337A
:10937400C2F83C35FFF7C9FF30B17D4AD2F8FC3062
:1093840023F08073C2F8FC30FFF7A4FF40B14FF024
:1093940080430022C3F80C21C3F81021C3F83825F8
:1093A400FFF7B3FF20B14FF080430322C3F8A02599
:1093B400FFF7ABFF60B16F4B0522C3F81026012203
:1093C400C3F888260022C3F818263F22C3F81426BF
:1093D4004FF0704393F8E02F062A50D1D3F8E42FCE
:1093E40011074CD1D3F8E83F03F0F003502B46D1DA
:1093F4004FF08052604BD2F80414C3F82015D2F811
:109404000814C3F82415D2F80C14C3F82815D2F89C
:109414001014C3F82C15D2F81414C3F83015D2F86C
:109424001814C3F83415D2F81C14C3F84015D2F834
:109434002014C3F84415D2F82414C3F84815D2F8FC
:109444002814C3F84C15D2F82C14C3F85015D2F8CC
:109454003014C3F85415D2F83414C3F86015D2F894
:109464003814C3F86415D2F83C14C3F86815D2F85C
:109474004014C3F86C15D2F84424C3F87025FFF7E0
:1094840029FF48B14FF080534FF08042D3F858324F
:1094940003F04F03C2F8E43EFFF71CFF48B14FF05E
:1094A4008043D3F80024D20744BF6FF00102C3F80D
:1094B40000244FF08053D3F83021062A0AD1D3F880
:1094C4003431062B01BF2D4AD2F83C3743F4806374
:1094D400C2F83C37264AD2F8883043F47003C2F805
:1094E4008830BFF34F8FBFF36F8F4FF01023D3F843
:1094F4000022002A03DBD3F80432002B2EDA204B9F
:109504000122C3F80425D3F80024002AFBD04FF02D
:1095140010221521C2F80012D3F80024002AFBD02F
:109524004FF010231522C3F80422154BD3F800245E
:10953400002AFBD00022C3F80425D3F80024002A13
:10954400FBD0BFF34F8F0A490E4BCA6802F4E062A6
:109554001343CB60BFF34F8F00BFFDE70A4B0B4AA9
:109564001A6008BD0030014000C007400DF0ADBADC
:1095740000ED00E00050004000C00040001000403A
:1095840000E001400400FA05482200200090D003C6
:10959400054A4FF0A043105CD3F8043523FA00F0D9
:1095A400C04300F001007047EC130300044B1A5C45
:1095B400012393404FF0A042C2F80C35704700BF1E
:1095C400EC130300044B1A5C012393404FF0A042B8
:1095D400C2F80835704700BFEC13030008B500203B
:1095E400FFF7F0FF0120FFF7EDFF0220FFF7EAFF8E
:1095F400BDE808400320FFF7E5BF08B50020FFF7EA
:10960400D5FF0120FFF7D2FF0220FFF7CFFFBDE80F
:1096140008400320FFF7CABF074A4FF0A041105C7F
:10962400D1F804350122824022EA03001340C1F834
:109634000805C1F80C357047EC130300054A4FF0D8
:10964400A043105CD3F8103523FA00F0C04300F0B7
:1096540001007047E81303000D2809D00E2809D033
:109664000F2809D010280CBF03204FF0FF3070479B
:10967400002070470120704702207047014B185C9E
:10968400704700BFE8130300C20708B501460CD5B4
:109694004FF0A0430322C3F84427C3F84827C3F874
:1096A4004C27C3F85027FFF799FF8B070AD54FF0D3
:1096B400A0430C22C3F83427C3F83827C3F83C2747
:1096C400C3F8402708BD000038B5074C051E04F157
:1096D400080318BF1C4623682BB11A6822605B6814
:1096E40028469847F7E738BD742E002020B9054B6B
:1096F40001225A70FFF7E8BF012802D1014A907095
:10970400F8E770476C2E002020B9034B01225A70F1
:10971400FFF7DABF704700BF6C2E002038B50B4C42
:10972400237883B90A486360A3602361E36000F08F
:10973400CBF8054606F04CFE08B900F0D1F8012339
:109744002370284638BD8525FBE700BF6C2E00201A
:10975400F196020037B50B4C00230DF107008DF88C
:109764000730FDF733FFE368013BE360E56815B9B3
:1097740000F0C8F8A5709DF80700FDF74BFF03B093
:1097840030BD00BF6C2E0020012813B508D003287B
:109794001CD018B9114B0122C3F8802002B010BDAF
:1097A4000F4C00230DF107008DF80730FDF70EFF75
:1097B40023780BB9FFF7B2FFE3689DF80700013384
:1097C400E3600123A370FDF725FFE7E700F088F8C5
:1097D40002B0BDE81040FFF7BDBF00BF00E100E0EC
:1097E4006C2E00201FB503788DF800304368019378
:1097F40083688DF80830C368054A0393054B6846AF
:1098040053F8213052F82110984705B05DF804FB55
:10981400802E0020842E00201FB503788DF80030A0
:109824004368019383688DF80830C368054A03933D
:10983400054B684653F8213052F82110984705B07B
:109844005DF804FB802E0020842E0020F0B5194B17
:1098540090F800C091F81DE043F82C20164B1646F2
:109864000A6943F82C20154B03F80CE00C46074614
:109874000FCC89B06D460FC594E80F0085E80F0042
:10988400CDF810C0BEF1000F09D0002E0C4A694675
:1098940008BF3246381D00F075FD09B0F0BD002E3A
:1098A400084A694608BF324607F10C0000F06AFB1B
:1098B400F3E700BF842E0020802E0020882E002095
:1098C400E99702001D980200044A137923B9012183
:1098D4001060918018467047852070478C2E0020B8
:1098E400074B1A68D2075FBFC02283F80023012206
:1098F4001A604FF080430122C3F81825704700BF57
:1099040000E100E04FF080430122DA60D3F818242C
:10991400D203FBD4704700004FF0804307B5D3F85F
:1099240000217AB10022C3F80021D3F8002100926B
:10993400009A0122C3F808230F4B587910B95A71C1
:109944001B6898474FF08043D3F8042182B100226A
:10995400C3F80421D3F804210192019A0222C3F826
:109964000823054B1B68012003B05DF804EB18477E
:1099740003B05DF804FB00BF8C2E002000F1804092
:1099840000F5C040002382B0036003680193019B8B
:1099940002B07047800000F1A040D0F8002722F404
:1099A4004032C0F80027D0F8003743EA0141C0F83C
:1099B40000177047C208012300F0070003FA00F003
:1099C4008B5C184388547047054B4FF0FF320728CF
:1099D40043F8202084BFC01880F84820704700BF97
:1099E400942E002038B5144D95F858400CBB202215
:1099F400FF2105F1300006F066FFE0B20134FFF705
:109A0400E3FF0C2CF9D10D4B0022C0216A6583F8C9
:109A14000613402119604FF4BE70FFF7AFFF084BE7
:109A24004FF00041C3F80413012385F85830104661
:109A340038BD0820FCE700BF942E002000E100E0C0
:109A440000600040034B93F85800003818BF012011
:109A5400704700BF942E00202DE9F041DFF8E48028
:109A640008EB0003054693F93030002B0F4664DA07
:109A74008B78C3F34003002B0BBF082400240C2174
:109A840008218C4202D10420BDE8F08158F824005A
:109A940001303DD108EB050166B248F8242081F875
:109AA40030601BB908EB040383F84850BB785A07AD
:109AB4000ED4D9072ED5AB0003F1A043D3F8002769
:109AC40022F00202C3F800271D492846FFF772FF5F
:109AD400BB783A7813F0020325D0A40004F1804443
:109AE40004F5C0442D02D4F8103523F4473323F48D
:109AF4004073C4F810351204D4F8103505F4F85541
:109B040002F4403215431D43C4F810550020BBE74E
:109B14000134B6E77A7805F5E0734FF0A04192007E
:109B240041F82320D0E7083E48FA86F696F85050CC
:109B340045EA821286F85020E8E70820A4E700BF2F
:109B4400E82E0020942E002038B5204C251895F9D5
:109B54003020072A18DD083A44FA82F494F8503089
:109B64009B09032B0BD14FF0A043D3F81015C14030
:109B740001F001010231BDE83840FFF70BBF012BB2
:109B84000CBF02210321F6E7D3B2072B1DD89300A3
:109B940003F1804303F5C043D3F8100540F00100FE
:109BA400C3F8100502F1400040B2800080B2FFF714
:109BB400E5FE51B195F9303054F823302BB101232F
:109BC40003FA02F2024BC3F8042338BD942E00209A
:109BD400006000404FF0A043D3F8103523FA00F0A2
:109BE40000F00100704700002DE9F04F87B0002419
:109BF400584D03944FF48072012102F1804303F520
:109C0400C04390B21B68012B06D1D5F804330B4234
:109C140002D0FFF7B3FE0C430432B2F5907F4FEA53
:109C24004101EAD14B4BD3F87C31012B0AD14FF4DB
:109C3400BE70FFF7A3FE4FF0A04344F00044D3F8F6
:109C440010350393E3B2D3B1434F002501263442C8
:109C540010D0AB0003F1804303F5C043D3F81005E3
:109C6400D3F8101557F8253023B1C1F30141C0F3DF
:109C7400042098470135082D4FEA4606E7D1002C09
:109C840061DA00224FF0FF33CDE90423DFF8C88006
:109C9400DFF8C89000273E464FF0A04B19F9014B5E
:109CA400631C45D0C4F3C20318336B440122E5B2EC
:109CB40004F03F0004F0070402FA04F413F8042C3F
:109CC400224235D008EB0002AD0992F9302058F851
:109CD40022A0BAF1000F09D1032D29D104A90193BF
:109CE4000090FFF767FEDDE9000301E0032DF5D0E6
:109CF40000F5E07113F80C3C5BF821102342C1F32A
:109D0400014105D0022913D1032D0CD1294604E0C9
:109D140003290DD1032D06D1022100900136FFF74E
:109D240039FE0098F6B2BAF1000F01D02946D047A7
:109D34000137042FB2D136B14FF0A043039AD3F8C0
:109D44001035934202D107B0BDE8F08F0393049B12
:109D540005939DE700600040942E0020E42E00202F
:109D6400014B1B68184700BFF02E00200E4B984291
:109D740037B50C4602D0002003B030BD00230DF1EE
:109D840007008DF80730FDF721FC084B1D7915B944
:109D940001221C601A719DF80700FDF73BFC002DA1
:109DA400E9D01120E8E700BF00200040F02E002099
:109DB400034B984201BF034B00221A601A7170478B
:109DC40000200040F02E00200023435082B043586E
:109DD4000193019B02B070470A4610B54FF48E718F
:109DE400FFF7F2FF136A9168C95C136A01331362C7
:109DF400C0F81C1510BD8B690A4610B54FF4847168
:109E040023B9FFF7E1FFD0F8183510BDFFF7DCFFE9
:109E1400536AD168D0F81805C854536A01335362A1
:109E2400F3E700001FB501238DF80030044BCDE9A2
:109E34000110D3E900126846904705B05DF804FBB1
:109E4400F82E002030B54D4DD5F804339A0585B071
:109E540051D5D5F82431002B4DD04FF492712846BA
:109E6400FFF7B2FF4FF40173C5F80833444B93F87E
:109E740029200AB901226A60404902228DF8002093
:109E8400D1F88024C1F8802403929A690292DA6896
:109E940001920022C3E906226846D3E900129047E2
:109EA4003648D0F81C315BB1354A116A536999427E
:109EB4004DD292F82830002B49D11146FFF78CFF80
:109EC4002E48D0F84431002B55D04FF4A271FFF73F
:109ED4007BFF2B4B93F829200AB1012202609A6977
:109EE400002A48D0586AD96800229A6105B0BDE8B2
:109EF4003040FFF797BFD5F804335B07D0D5D5F8CA
:109F04000831002BCCD01E4C1C482146FFF773FFB0
:109F1400636AA2699A42C3D1E369E1684BB1A36160
:109F24002369E3600023606AE3616362FFF77AFFF9
:109F3400B6E794F829300BB901236B600F4B4FF44B
:109F44000172C3F808230023606AA361EEE74FF4AB
:109F54008E710A48FFF738FF51690029B0D00023F9
:109F6400029191688DF80030019153616846D2E9FD
:109F740000139847A4E705B030BD00BF002000409F
:109F8400F82E00202DE9F843564D90F804802C2338
:109F940003FB0853064693F82A300C469146002BDF
:109FA40040F09B8050490068FFF7E0FE0746002818
:109FB40040F0958022683068511C0BD04FF0A041CE
:109FC40001239340C1F8083502F5E0734FF0030C08
:109FD40041F823C061684B1C1FBF01F5E0734FF0CB
:109FE400A04C4FF0000E4CF823E0A369C0F82435D0
:109FF40094F814C0637DBCF1010F4CEA0303C0F86C
:10A004006C35C0F81415C0F80C251DD1A268531C7A
:10A014001FBF02F5E0734FF0A0414FF0000C41F870
:10A0240023C0E368591C0BD04FF0A04C0121994088
:10A03400CCF8081503F5E0714FF0030E4CF821E05D
:10A04400C0F80835C0F810252C2202FB08F2AB1822
:10A05400C3F804902369AB50B9F1000F2AD04FF430
:10A064008E71247FFFF7B0FE30684FF4A271FFF7C2
:10A07400ABFE32681D4BC2F80433130B42F30732B4
:10A08400002AA8BF02F160404FEA4411BABF184841
:10A0940003F00F0400F56140C9B2B4BF015580F864
:10A0A400001303F01F03012101FA03F352091149BC
:10A0B40041F8223033680422C3F800252C2303FB23
:10A0C40008530022C3E9062283F829205A61012299
:10A0D40083F82A203846BDE8F8830827FAE71127D1
:10A0E400F8E700BFF82E0020499E0200800002001D
:10A0F40014ED00E000E100E0F8B5057900682C4CAF
:10A104000023C0F800352C2303FB05435B686BB1C7
:10A11400284BC0F8083340F30733C0F304315B091C
:10A1240001228A402033244941F82320D0F80C65C9
:10A13400D0F81415D0F80835D0F810254FF0FF37B3
:10A14400BE42C0F8147518BF06F5E076C0F80C7569
:10A15400C0F80875C0F810751EBF4FF0A0474FF047
:10A16400020C47F826C04E1C1FBF4FF0A04601F555
:10A17400E071022746F82170511C1FBF4FF0A04127
:10A1840002F5E072022641F822605A1C1FBF03F553
:10A19400E0734FF0A042022142F82310FFF708FEBB
:10A1A4002C2303FB0544002384F82A306360F8BDA4
:10A1B400F82E00208402020000E100E00279044B42
:10A1C4002C2101FB02335869003818BF0120704765
:10A1D400F82E00202DE9F84F064689469246FFF7EF
:10A1E400EDFF044600283DD196F804801F4F2C252E
:10A1F40008FB057B4FF48E71CBF82000CBF814A03C
:10A204008BF82800CBF808903068FFF7DDFD306844
:10A21400012383605946FFF7DFFDDBF804305D4618
:10A2240013BB30682A6A6B699A4211D33368D3F836
:10A234001C21002AFBD00122DA6000202C2303FB1E
:10A24400087700237B61BDE8F88F95F828303BB987
:10A25400D0F81C31002BF8D05946FFF7BDFDE1E7DB
:10A264000F20EBE71120EEE72046ECE7F82E002064
:10A274000023435082B043580193019B02B07047BE
:10A284001FB501238DF80030044BCDE90110D3E94B
:10A2940000126846904705B05DF804FB242F0020A7
:10A2A4007FB5364AD2F82461002E46D010464FF4CA
:10A2B4009271FFF7DDFF02238DF80030D2F880346D
:10A2C400C2F880340393D2F83C3502932C4BDA68FD
:10A2D40001920022C3E906226846D3E9001290479E
:10A2E4002648D0F8443173B14FF4A271FFF7C0FF90
:10A2F400234B9A693AB10022C3E90622D968D0F8FF
:10A304003C05FFF7BDFF1D48D0F820319BB14FF449
:10A314009071FFF7ADFF1A4B5A6962B1D0F84C1532
:10A324000291002299688DF8002001915A616846D3
:10A33400D3E90012904704B070BDD2F81031002B5D
:10A34400CED04FF488711046FFF792FF0C4BD2F831
:10A354003C0599698842C3D1DC69D96864B1D2F8F3
:10A36400005225F02005C2F800521A699C61DA6097
:10A37400DE61FFF785FFB3E79C61FAE70020004048
:10A38400242F00202DE9F8435A4E90F8048024230A
:10A3940003FB0863054693F820300C469146002BD6
:10A3A40040F0A38054490068FFF7E0FC074600280A
:10A3B40040F09D8022682868511C0BD04FF0A041CA
:10A3C40001239340C1F8083502F5E0734FF0030C04
:10A3D40041F823C061684B1C1FBF01F5E0734FF0C7
:10A3E400A04C4FF0000E4CF823E0A369C0F82435CC
:10A3F40094F814C0637DBCF1010F4CEA0303C0F868
:10A404006C35C0F80C25C0F814151DD1A268531C76
:10A414001FBF02F5E0734FF0A0414FF0000C41F86C
:10A4240023C0E368591C0BD04FF0A04C0121994084
:10A43400CCF8081503F5E0714FF0030E4CF821E059
:10A44400C0F80835C0F81025242202FB08F2B3181E
:10A45400C3F804902369B350B9F1000F34D04FF41A
:10A464008871227FFFF704FF28684FF49071FFF78B
:10A47400FFFE28684FF49271FFF7FAFE28684FF444
:10A48400A271FFF7F5FE2B681C49C3F80413190BDE
:10A4940043F30733002BAEBF03F1604001F00F0418
:10A4A40017484FEA4212A8BF00F56140D2B2B4BFC8
:10A4B400025580F8002301F01F01012202FA01F184
:10A4C4005B09104A42F823102B680822C3F80025C0
:10A4D400242303FB08660023C6E9063373610123C2
:10A4E40086F820303846BDE8F8830827FAE71127B4
:10A4F400F8E700BF242F0020A5A2020010030200E9
:10A5040014ED00E000E100E0F8B5057900682C4C9A
:10A514000023C0F80035242303FB05435B686BB1BB
:10A52400284BC0F8083340F30733C0F304315B0908
:10A5340001228A402033244941F82320D0F80C65B5
:10A54400D0F81415D0F80835D0F810254FF0FF379F
:10A55400BE42C0F80C7518BF06F5E076C0F8147555
:10A56400C0F80875C0F810751EBF4FF0A0474FF033
:10A57400020C47F826C04E1C1FBF4FF0A04601F541
:10A58400E071022746F82170511C1FBF4FF0A04113
:10A5940002F5E072022641F822605A1C1FBF03F53F
:10A5A400E0734FF0A042022142F82310FFF700FCB1
:10A5B400242303FB0544002384F820306360F8BDA2
:10A5C400242F00201003020000E100E00279044B74
:10A5D400242101FB02335869003818BF0120704759
:10A5E400242F002001F06043B3F1005F2DE9F04710
:10A5F40006468846924635D190F80490FFF7E6FF68
:10A60400044688BB1A4F3068242505FB09754FF4AE
:10A614009071C5F814A0C5F80880FFF729FE4FF41F
:10A62400AC713068FFF724FE33686A69A968C3F81F
:10A634004415C3F8482501229A606A68B2B9D3F870
:10A644002021D3F858014AB90028F8D00F20242338
:10A6540003FB097700237B61BDE8F087002818BF5E
:10A664000F20F4E71020F7E71120F5E72046F3E781
:10A67400242F00200220FEF7CFBF00002DE9F04771
:10A6840080460D46FEF7E8FF0328044610D8012D46
:10A6940010D0022D30D05DB91A48FCF787FF1A4B51
:10A6A40004EB440213449D78184B1B5DAB4219D054
:10A6B400BDE8F087144E00EB4003F218F55C5378C4
:10A6C400470053B1DFF84C900E484A464FF400411E
:10A6D400FCF724FF08B989F8008027443E440B4B5B
:10A6E400B2781A55002DE3D0094B1B68002BDFD03C
:10A6F4002846BDE8F047184700EB400402480444EC
:10A704006578EFE76C2F0020AC2F0020C52F0020C8
:10A71400C02F0020482F002000780221FFF7AEBF91
:10A7240008B5094B1B7853B10020FEF74BFF0120FD
:10A73400FEF748FFBDE808400320FEF743BFBDE82D
:10A744000840FEF74BBF00BF492F0020F8B57A4CF4
:10A75400237805461BB100232370FFF7E1FF172D73
:10A7640000F28780DFE805F00C1717425364757F09
:10A77400878C878C949999999999C3C8D0D8E3E325
:10A78400FFF7CEFF6D48FCF711FF6D4B0022044626
:10A794001A702046F8BD0020FEF7FAFEF0B1002042
:10A7A400FEF710FF022D0CBF4FF4E1644FF47A64FE
:10A7B400634B1D7000254FF400464FF4FA70294690
:10A7C4004FF47A720023E4FB060105F05BFF2A468E
:10A7D4000146BDE8F8405948FCF7A0BEFEF7E6FE86
:10A7E400022D0CBFC8244FF4C874E1E70020FEF723
:10A7F400CFFE40B10020FEF7E5FE4FF44874504B05
:10A8040003221A70D6E7FEF7D1FEC824F7E700202A
:10A81400FEF7BEFE38B10020FEF7D4FE4FF47A6492
:10A82400474B0422EDE7FEF7C1FE4FF4C874F7E787
:10A834000020FEF7ADFE48B10020FEF7C3FE404BFA
:10A8440005221A7041F69A110022C2E7FEF7AEFE05
:10A85400F5E70020FEF7E0FE394B06221A700022CD
:10A8640040F6CD41B5E70020FEF7A0FE344B0722A9
:10A874001A7000248DE701202070FEF7CDFEEEE76C
:10A8840001202070FEF7C8FE00224FF48041A0E7AB
:10A89400FEF7B3FE2A4B0C22EAE72A482A4EFCF7BD
:10A8A40085FED5F1110504461CD0D8B9012D13D06D
:10A8B400C820454321464FF400474FF4FA704FF443
:10A8C4007A720023C5FB070105F0DCFE224601462F
:10A8D4001C48FCF723FE04460220FEF767FE012312
:10A8E400337056E70220FEF76DFE0023F8E7FFF70A
:10A8F40017FF134B1222BBE7FFF712FF0020FEF7EE
:10A9040055FE0F4B1322B3E7FFF70AFF0120FEF7B2
:10A914004DFE0B4B1422ABE7FFF702FF0020FEF7BE
:10A9240045FE0120FEF742FE054B1522A0E7FEF787
:10A9340064FE034B1D709CE7BC2F00208C2F00206D
:10A94400C42F00204C2F0020492F0020044B1B68EB
:10A95400DB0703D5034B1878FFF7F8BE704700BF39
:10A96400B82F0020C42F002010B5002914BF0324E1
:10A974000024FEF783FE800000F1A040D0F80027F9
:10A9840022F44032C0F80027D0F8003743EA0443E9
:10A99400C0F80037002010BD032801D8FEF74EBED2
:10A9A40000207047044B1B6813F0010301D0FFF72C
:10A9B400CDBE1846704700BFB82F002038B51C4BD9
:10A9C40018601C4B10F00204054619601AD01A4B8B
:10A9D4001A480E221A700F22DA7010229A7111226C
:10A9E4005A72042140F26662FCF794FA044648B9AC
:10A9F400FCF7E6FA044628B90146114A1148FCF767
:10AA04007BFD0446EB0711D50120FEF73DFE6CB932
:10AA140021460D4A0D48FCF76FFD044630B9BDE8E8
:10AA240038400B4A0B480121FCF766BD204638BD6F
:10AA3400B82F0020C02F0020AC2F002014140300D6
:10AA44001DA702003814030051A902003C1403009E
:10AA540079A6020034140300032811D8012A0AD16C
:10AA640001290FD100F10E02D2B20D4B00EB4000D0
:10AA74001A54002070470129F7D0022904D049B1A3
:10AA8400072070470022F8E7054B00EB400018440C
:10AA94004270EEE7024B00EB400018448270E8E796
:10AAA400AC2F0020032802D80121FFF75DBF062048
:10AAB400704708B5012202210020FFF7CDFF08B13D
:10AAC400072810D1072202210120FFF7C5FF08B192
:10AAD400072808D100210A220846FFF7BDFF10B15C
:10AAE400072808BF002008BD0388102B10B502D02A
:10AAF400112B1ED010BD1A4C2168B1B90122084691
:10AB0400FFF7AAFF08B1072824D107220221012058
:10AB1400FFF7A2FF08B107281CD10422022100205C
:10AB2400FFF79AFF08B1072814D123680133236083
:10AB3400E0E70B4A1368013B1360002BDAD1FFF7FF
:10AB4400B8FF0028D6D0074B1B68002BD2D0BDE835
:10AB540010401847034B1B68002BE6D09847E4E7E6
:10AB6400D02F0020CC2F002008B50020FFF79AFF3B
:10AB740008B1062806D10120FFF794FF10B106287A
:10AB840008BF002008BD00000D4B10B518600C462E
:10AB940029B10120FFF700FF40B102232370094BC4
:10ABA4001B6853B9BDE81040FFF783BFFFF7F4FEFD
:10ABB40008B10B23F2E72070F1E7002010BD00BFBD
:10ABC400CC2F0020D02F002076DF70477ADF70472B
:10ABD4007CDF70478FDF704733DF7047FCF706BABE
:10ABE40008B50020FFF7DEFE08B1FCF7FFF9FFF718
:10ABF400BBFF08B1FCF7FAF9FFF7EEFF18B1BDE8A7
:10AC04000840FCF7F3B908BD08B5042832D8DFE8DA
:10AC140000F02D0331152100174B18481849C01AAC
:10AC2400C008000440F00300FBF736FF0520FFF7DF
:10AC3400B9FEF8B1BDE80840FCF7D8B90E4B0F488F
:10AC44001049C01AC008000440F00300FBF724FFB9
:10AC54000220ECE7084B09480B49C01AC00800045D
:10AC640040F00300FBF718FF0420E0E7BDE80840CC
:10AC7400FFF7B6BF08BD00BF840A0300AC0A030097
:10AC8400401403005514030066140300043838B557
:10AC94000C2800F2AB80DFE800F00BA9A9A9A9A950
:10ACA40007A9A9A918497200BDE83840FFF798BF61
:10ACB4004F4B13211888FFF787FF30F0080300F08B
:10ACC4009580BDE83840FCF791B94A4802894FF6AF
:10ACD400FF739A4200F08A80474B484C48491A78DF
:10ACE400641AE4082404022A44F003040ED1012265
:10ACF40011201A70FFF756FE424905462046FBF71D
:10AD0400CBFE35F0080371D02846DAE7012A06D1D4
:10AD140000221A7005F0BDF93B490546EEE7012211
:10AD24001A7005F0A9F939490546E7E7314802895F
:10AD34004FF6FF739A4259D0354B304C30491A784C
:10AD4400641AE4082404022A44F0030407D101220B
:10AD540011201A70FFF726FE2E490546CEE7012A78
:10AD640006D100221A7005F0A7F92B490546C5E75C
:10AD740001221A7005F093F928490546BEE71D48DB
:10AD840002894FF6FF739A4230D0214B1B78013B66
:10AD9400012B11D8FF2105F0FCF930F0080301D094
:10ADA400FCF724F91548164B1D49C01AC0080004C5
:10ADB40040F00300FBF770FE0F4B1B78013B012BA7
:10ADC40014D80C48FF2105F0D7F930F0080301D05E
:10ADD400FCF70CF90A4B09481249C01AC0080004D0
:10ADE400BDE8384040F00300FBF756BE38BD00BF55
:10ADF4001825002040320020B0320020AC0A0300A5
:10AE0400840A0300771403008D140300A8140300BC
:10AE1400C0320020C2140300DB140300F914030041
:10AE240016150300511503000146014804F0E8BF5C
:10AE34004032002030B5037885B00446042B00F27C
:10AE4400A780DFE803F05BA5AD039300838842F697
:10AE54004522934227D15A4D2B78012B40F09880FC
:10AE64000E20FFF79FFD08B1FCF7C0F802232B70FA
:10AE74005448554B5549C01AC008000440F003001B
:10AE84000190FBF709FE227A514B524953F82220D4
:10AE94000198FBF705FE627A4F49019805B0BDE8B9
:10AEA4003040FBF7FDBD42F64622934270D14B4D34
:10AEB4002B78012B6CD10D20FFF774FD08B1FCF742
:10AEC40095F802232B703F483F4B4549C01AC008F0
:10AED400000440F003000190FBF7DEFD3C4B227AB6
:10AEE4003C4953F822200198FBF7DAFD627A3D4988
:10AEF4000198FBF7D5FD22693B49CEE7418800F173
:10AF040008023A4805F051F908B1FCF76FF83748E0
:10AF140005F0FEF808B1FCF769F8344805F012F9B9
:10AF240008B1FCF763F8314805F0A6F808B1FCF75E
:10AF34005DF82A4B234C2E4901251D70224BE41A3F
:10AF4400E408240444F003042046FBF7A5FD274845
:10AF540005F0A5F808B1FCF749F8194B25491D700F
:10AF6400204605B0BDE83040FBF796BD838842F625
:10AF7400482293420ED101238DF80C301B48237ACA
:10AF84008DF80D3003A905F09DF808B1FCF72EF8F3
:10AF940005B030BD42F647229342F9D10023EBE7D6
:10AFA4000E4A00231370064A11201370FFF7FAFCAF
:10AFB4000028EDD005B0BDE83040FCF717B800BF5D
:10AFC400C0320020AC0A0300840A03008915030080
:10AFD400A4180300A1150300C0150300B03200201B
:10AFE400DF150300F415030013160300403200209C
:10AFF400A8140300F914030008B50548032100F060
:10B004009FFD18B1BDE80840FBF7F0BF08BD00BFC5
:10B01400D42F002010B5044604F004F8204603F0B1
:10B024001DFE23780C2B03D1BDE81040FFF7E4BFCD
:10B0340010BDFBF7DBBFFBF7D9BF000007B5094B19
:10B0440009480A49C01AC008000440F003000190EE
:10B05400FBF722FD0649019803B05DF804EBFBF70A
:10B064001BBD00BF840A0300AC0A030032160300B0
:10B07400541603004FF0A0430322C3F87027C3F80B
:10B084006C27C3F87C274FF08052C3F80C254FF08F
:10B094000062C3F80C254FF000420648C3F80C25A3
:10B0A400054B0649C01AC008000440F00300FBF732
:10B0B400F3BC00BFAC0A0300840A03006C1603004F
:10B0C40038B51C4B1C4C1D49E41AE408240444F014
:10B0D4000304054602462046FBF7E2FC18492846CD
:10B0E40005F024FC58B94FF0A0434FF080521549A5
:10B0F400C3F808252046BDE83840FBF7CDBC12490B
:10B10400284605F013FC38B94FF0A0434FF0006215
:10B114000E49C3F80825EDE70D49284605F006FC5D
:10B1240038B94FF0A0434FF000420A49C3F808254C
:10B13400E0E738BD840A0300AC0A0300A11603004B
:10B14400B9160300C6160300F4160300FA1603002A
:10B15400211703002F17030013B5044661B31748E2
:10B16400174B227817491B1ADB081B0443F0030012
:10B174000190FBF795FC22780198322A0CD0332AEF
:10B184000FD0312A12D11049FBF786FC0F4802B0C8
:10B19400BDE81040FFF794BF0D49FBF77DFC0D4857
:10B1A400F5E70D49FBF778FC0C48F0E70C4902B0D1
:10B1B400BDE81040FBF774BC02B010BD840A030064
:10B1C400AC0A03005E1703006D170300B9160300F1
:10B1D40090170300F4160300AC17030021170300B3
:10B1E400D017030003883B2B13B504465AD007D865
:10B1F400112B0ED0212B3DD0102B17D002B010BD37
:10B20400502B45D0562BF9D1A0881321FFF7DCFC35
:10B2140029E0274B27482849C01AC008000440F0F9
:10B22400030002B0BDE81040FBF736BC204B2148B8
:10B234002249C01AC008000440F00300FBF72CFCAC
:10B244000720FFF7AFFB08B1FBF7D0FEA1881C4C29
:10B254001C48218001F0EAF908B1FBF7C7FE2188F8
:10B26400194802F0A3FB0028C8D002B0BDE8104082
:10B27400FBF7BCBE002380888DF8043001A98DF84B
:10B284000530FFF7A7FC0028B8D0FBF7AFFEB5E701
:10B29400C388002BB2D1018A123002B0BDE810403D
:10B2A400FFF75ABF064B4FF6FF721A80ACE700BF98
:10B2B400840A0300AC0A0300EA170300F81703002A
:10B2C400182500204C220020B432002000B54FF491
:10B2D4000041AFB00020FBF723FA08B1FBF786FE6C
:10B2E400FBF752F9FCF7D8F808B1FBF77FFEFFF73C
:10B2F400C1FE7B490320FFF761FB08B1FBF776FE33
:10B3040003A90020FFF740FC08B1FBF76FFE9DF88E
:10B314000C50FDF759FF08B1FBF768FE04F0DAFFA3
:10B3240008B1FBF763FE002303A90120039305F092
:10B334009DF808B1FBF75AFE03A805F035F908B1EA
:10B34400FBF754FE112367498DF80830092202A83F
:10B35400FFF73EFC08B1FBF749FE0023ADF81030BF
:10B364004FF448724FF4C87303A8ADF80C30ADF82D
:10B374000E20ADF81230FFF729FC08B1FBF736FEBA
:10B384005948002102F000FA08B1FBF72FFE002112
:10B39400AC2203A805F097FA02238DF80C3040F292
:10B3A40001632821ADF80E3040F6B833CDE92513FA
:10B3B40040F201134FF44860ADF8883044F2506312
:10B3C400CDE9270303A9494B49482C9300F03BFBE3
:10B3D40008B1FBF70BFE4648012100F031FB45485C
:10B3E40001F0EAF808B1FBF701FE434B434802932E
:10B3F40002A902F0C9FA08B1FBF7F8FD404B122488
:10B4040022460021184605F05EFA3E4A3E4B03925E
:10B41400CDE9054003A93D48049304F0DDFD08B1DE
:10B42400FBF7E4FD1822002103A805F04CFA4FF4C1
:10B4340070234FF42032CDE9042303238DF8183010
:10B4440001238DF81C3003A8314B099300F0BAFD99
:10B4540008B1FBF7CBFD03F071F808B1FBF7C6FDAB
:10B4640031238DF80C3007238DF80D3010238DF81F
:10B474000E3003A803238DF80F308DF8103003F03D
:10B48400F7F808B1FBF7B2FD224803F0D9F808B188
:10B49400FBF7ACFD204B21482149C01AC008000429
:10B4A40040F003000190FBF7F7FA1E490198FBF7FF
:10B4B400F3FA022D11D11C490198FBF7EDFA03F0C0
:10B4C4002FF908B1FBF792FDFFF7B8FDFBF782F9FE
:10B4D4000028F9D1FDF78EFEF6E7FFF78DFDF3E7BF
:10B4E40091AC0200031803009C3200200DAC020052
:10B4F400D42F00202DAE0200E1AB0200B4320020B4
:10B504002C32002039AE02003BB002004032002051
:10B5140037B0020019B00200840A0300AC0A030029
:10B524000D18030038180300411803006DDF70473D
:10B5340079DF70477DDF704764DF70472DE9F04F96
:10B5440085B000250E9CBDF83CB0B4F800A0019174
:10B55400074690461E46A9463A884A450DDC45B141
:10B564002388013BA3EB0A039BB2FF2B3AD806F8CE
:10B574000A30002005B0BDE8F08F7A6852F829003F
:10B58400039000220DF10B0103A8FFF7D5FF00285B
:10B59400F0D19DF80B20424521D12288002D14BF03
:10B5A4000020022002EB0801014459451ADC3DB990
:10B5B400013292B2019B2280B3542288013222804C
:10B5C40022880DF10B01324403A8FFF7B5FF0028D0
:10B5D400D0D121889DF80B200A442280012509F14D
:10B5E4000109B9E70C20C5E72DE9F341089FBDF82F
:10B5F40024801546CDE90078022204461E46FFF752
:10B604009DFF50B93346102229462046CDE90878DB
:10B6140002B0BDE8F041FFF791BF02B0BDE8F08190
:10B624002DE9F04F00231788138090F82D3085B052
:10B6340006460D4614465BB3082F01D80C2028E1BA
:10B6440002A8FFF773FF002840F023812388DDF868
:10B6540009100822EA54238801339BB21B22238059
:10B66400EA54238801339BB2EA182380E950BDF8D9
:10B674000D30938023889DF8082006339BB212F086
:10B68400FE0218BF01222380EA5423880133238059
:10B69400B378FBB123880433BB42CFD802A8FFF7A9
:10B6A40047FF002840F0F58023880322EA542388CA
:10B6B40001339BB219222380EA542388BDF8082061
:10B6C40001339BB2E9182380EA54120A4A70238892
:10B6D40002332380F2789AB12388D91CB942ADD8B9
:10B6E4000221E954238801339BB201212380E954C8
:10B6F40023880B449BB22380EA5423880B44238081
:10B704007268AAB12388D91CB94297D8022192F948
:10B714000020E954238801339BB20A212380E95491
:10B72400238801339BB22380EA5423880133238086
:10B734003389002B40F0A180338A5BB1CDE9004707
:10B744002B460722032106F11000FFF74DFF0028C6
:10B7540040F09F80338B5BB1CDE900472B46152227
:10B76400142106F11800FFF73FFF002840F09180F4
:10B77400326A002A40F09080D6F82480B8F1000F95
:10B7840030D0B8F804302188981C8A1C0244BA428C
:10B794003FF654AFFE283FF651AF03336B54238872
:10B7A40001339BB2FF222380EA54238801339BB2E6
:10B7B4002380B8F80020EA54E918120A4A70208855
:10B7C400023080B22080B8F804205AB1D8F80810AA
:10B7D40000296BD0284405F04DF82388B8F80420DC
:10B7E4001344238096F82C30002B40F09880307856
:10B7F40000284ED03388012B58D0228802F1020C45
:10B80400BC453FF61BAF012805D1737802331344BE
:10B814009F42FFF413AF023FBF1ABFB202A905EB68
:10B824000C00ADF80870FFF785FE90BB3178BDF8C9
:10B834000830022900F0B98072789A4202D39F42FC
:10B8440080F0B180012940F0B280974293B2C0F0F9
:10B85400AE80ADF808300821BDF80830FE2B3FF665
:10B86400EDAE22880133AB542288013292B2228099
:10B87400A9542288134423800BE0CDE900472B46CA
:10B884000622022106F10800FFF7AEFE00283FF46D
:10B8940053AF05B0BDE8F08FB4F800C00CF1060357
:10B8A400BB423FF6CBAE1188052901D80720F0E74B
:10B8B4006FF4486E01EB0E039BB24FF27D3E73456D
:10B8C400F4D95388052BF1D96FF44860181880B265
:10B8D4007045EBD94FF6FF70814201D09942E5D80B
:10B8E400052305F80C30238801339BB212212380F1
:10B8F400E954238801339BB223801188E954E81862
:10B90400090A4170238802339BB223805288EA5487
:10B91400E918120A4A702388023323802CE7B36A99
:10B92400002BC3D04FF000084FF00C0A4FF0160B59
:10B93400B16A5FFA88F20AFB02F201EB0209B9F874
:10B944000430981CFE283FF679AE208803332B542C
:10B95400238801339BB2238005F803B02388013385
:10B964009BB223808A5AEA54E918120A4A70208842
:10B97400023080B22080B9F804205AB1D9F80810F6
:10B98400002993D0284404F075FF2388B9F80420D3
:10B994001344238096F82C2008F101085FFA88F3F9
:10B9A4009A42C5D823E7092156E79F42FBD2ADF856
:10B9B400087050E770B5C0B14AB116880024B4428B
:10B9C40003D305196D789D4208D0A14201D8002007
:10B9D4000BE0055D01352C44A4B2F0E7A142F6D991
:10B9E400A31C1380005D013880B270BD13B51346EB
:10B9F4000022ADF806200DF106020446FFF7DAFF37
:10BA040010B1BDF80630E01802B010BD72DF704707
:10BA140073DF704738B5012204460D46B0F838127A
:10BA2400D0F83402FFF7E2FF00B1057004F13C02E4
:10BA340004F50D7104F15400BDE83840FFF7E6BF8A
:10BA440080F830107047F8B504460F46002973D0CB
:10BA5400002871D091F87A301BB191F89830002BFE
:10BA64006CD1D7F8A030042B68D0D7F89C30042BC5
:10BA740064D04FF0000C84F802C007F178060FCEB2
:10BA8400251D0FC50FCE0FC596E8070085E80700F2
:10BA940084F830C0D7F8A4306363D7F8A830A36320
:10BAA40004F50D724FF6FF73C4F84AC2A4F8483285
:10BAB400C4F84422C4F84DC222780AB984F8543038
:10BAC40094F82430002B14BFEE231F2304F15501F6
